:020000040800F2
:1000000038070020B5010008D1210008C51C0008F0
:10001000CD21000811030008E521000800000000C0
:10002000000000000000000000000000D9210008CE
:100030001503000800000000D5210008DD2100089C
:10004000CF010008CF010008CF010008CF01000850
:10005000CF010008CF010008CF010008CF01000840
:10006000CF010008CF010008CF010008CF01000830
:10007000CF010008CF010008CF010008CF01000820
:10008000CF010008CF010008CF010008CF01000810
:10009000CF010008CF010008CF010008CF01000800
:1000A000CF010008CF010008CF010008CF010008F0
:1000B000CF010008CF010008CF010008CF010008E0
:1000C000CF010008CF010008CF010008CF010008D0
:1000D000CF010008CF010008CF010008CF010008C0
:1000E000CF010008CF010008CF01000800F002F89E
:1000F00000F050F814A696E8000CB244B344DA4578
:1001000001D100F047F8BAE80F000FA696E83000DA
:10011000A5EB040504EB0607AAEB0704A7F101070A
:100120004FEA15154FEA3414A4F10104AC4201D38F
:1001300000F030F813F0010F18BFFB1A43F0010371
:1001400000F001F8DBE71847783700009837000027
:10015000103A24BF78C878C1FAD8520724BF30C8F3
:1001600030C144BF04680C60704700007047000055
:100170000023002400250026103A28BF78C1FBD8B0
:10018000520728BF30C148BF0B6070471FB51FBD65
:1001900010B510BD00F044F81146FFF7F7FF02F06C
:1001A00023F800F062F803B4FFF7F2FF03BC00F09D
:1001B00065F800000948804709480047FEE7FEE768
:1001C000FEE7FEE7FEE7FEE7FEE7FEE7FEE7FEE707
:1001D00004480549054A064B70470000E121000824
:1001E000ED00000838010020380700203803002007
:1001F0003803002070477047704710B500F008F8CA
:10020000006810BD10B5044600F002F8046010BD8F
:100210000048704710000020004870471000002080
:100220007546FFF7F9FFAE4605006946534620F0D4
:100230000700854618B020B5FFF7CAFFBDE820408B
:100240004FF000064FF000074FF000084FF0000B92
:10025000AC46ACE8C009ACE8C009ACE8C009ACE801
:10026000C00921F007018D46704710B50446AFF371
:1002700000802046BDE81040FFF795BF01491820D7
:10028000ABBEFEE72600020070470000B0B584B0A8
:1002900004460020ADF80E0002200DF10E014FF0D3
:1002A000640CCDE9001020466C210C220123CDF80E
:1002B00008C000F097FBA8B141F21005C4F2020596
:1002C000286840F400102860012000F0B1F9286887
:1002D00020F400102860204600F0D2FA002004B07C
:1002E000B0BD00BF9DF80E009DF80F1000F00F008C
:1002F00041EA002002F0DAFF4FF0665103F052F8B5
:1003000040F6DB71C4F2C90103F04CF804B0B0BD93
:10031000FEE70000704700002DE9F04381B0814600
:10032000002042F63448C9F81800484600214FF032
:100330008042C4F2010800F083F84EF200054FF449
:100340007A74C4F2E04500BF09F11C07C1CF294609
:1003500003F028F802F072FFC8F800003046294682
:1003600003F020F802F06AFFC8F804003846294676
:1003700003F018F802F062FFC8F80800012000F04E
:1003800057F9013CE0D140F2E000C2F20000FFF773
:100390007DFFD9F8101003F005F899F80010054614
:1003A000084602F083FF0146284602F0FBFF40F6B4
:1003B000D071C4F2C90102F04FFA0021054602F0E3
:1003C0000AFE78B9284602F05DFD48F26E6242F2FC
:1003D000F913CFF21B02C4F2190302F069FB02F019
:1003E00035FB0546484600210022C9F80C5000F0B4
:1003F00027F84EF20006D9E90705C4F2E046D9F81D
:100400002440314602F0CEFF02F018FFC8F8000089
:100410002846314602F0C6FF02F010FFC8F804007B
:100420002046314602F0BEFF02F008FF0146C82018
:10043000C8F8081001B0BDE8F04300F0F9B80000BA
:100440002DE9F04784680F468046D0F8189008469A
:100450002146164602F0B8FD84F00045002818BF7A
:1004600027463846294602F0C4FD0028304621467A
:1004700018BF2F4602F0A8FD002818BF26463046B8
:10048000294602F0B6FD0028484618BF2E4602F065
:1004900019FA8246484602F021F904463846514688
:1004A00002F080FF05463046214602F07BFF2946D8
:1004B00003F0FAF881462046394602F073FF0446FD
:1004C0003046514602F06EFF214602F007FD4BF226
:1004D000D731C3F65D7102F065FF044648464FF020
:1004E0003F4102F05FFF2146074602F0F7FC064657
:1004F0003846214603F0D8F807463046494602F010
:1005000063FD4C46002818BF34463846214602F0A9
:100510005BFD00283046494618BF3C4602F069FDA5
:100520004D46002818BF35463846294602F061FD81
:10053000002818BF3D462046294602F0CFFC4FF068
:100540007C5102F02FFF04464846214603F0ACF8E8
:1005500005463046214603F0A7F8064638462146B0
:1005600003F0A2F8D8F8044081462846214602F05C
:1005700053FD4FF07C5102F0B1FC0746C8F81C0057
:100580003046214602F048FD4FF07C5102F0A6FCB7
:100590000646C8F820004846214602F03DFD4FF0CF
:1005A0007C5102F09BFC0546C8F8240038464FF009
:1005B0007E514FF07E5402F007FD18B1C8F81C4080
:1005C00009E000BF38460021002402F004FD0028A5
:1005D00008BFC8F81C4030464FF07E514FF07E54A3
:1005E00002F0F2FC10B1C8F8204008E030460021CB
:1005F000002402F0F0FC002808BFC8F8204028467C
:100600004FF07E514FF07E5402F0DEFC20B1C8F86E
:100610002440BDE8F08700BF28460021002402F0F6
:10062000DAFC002808BFC8F82440BDE8F0870000C5
:10063000B0B5044600F01EF9054640F20000C2F2D3
:1006400000000078611C18BF044400BF00F012F9DC
:10065000401BA042FAD3B0BD2DE9F04F82B00E6826
:10066000002E00F0FD8041F20042C4F2010204239A
:1006700040F2004E904208BF03234FF6FF7CC4F2C5
:10068000010E009300240123C1F2100C4FF0000A68
:100690004FF000094BE000BF41F20002C4F201023A
:1006A000009F904208BF022704F00C030F229A40DB
:1006B0002BEA020207FA03F34FEA9A051A4346F8B7
:1006C00025204E6840F20C45F202DEF8082054BFA7
:1006D00022EA080242EA0802C4F20105CEF8082024
:1006E0002A68B30254BF22EA080242EA08022A60DA
:1006F000B303DEF8042054BF22EA080242EA0802EB
:10070000F303CEF80420DEF800204FF0010354BFBD
:1007100022EA080242EA0802CEF800200E680AF136
:10072000010A36FA0AF204F1040400F0998003FA8F
:100730000AFB16EA0B08F1D04E68664512DC122E51
:1007400056D8DFE806F0350B4D49555555555555EA
:100750005555555555555545510000BFD1F80C908C
:1007600046E000BF4FF6FF72C1F2210296420FDC55
:100770000022C1F2110296421AD00022C1F21202E6
:10078000964215D00022C1F22102964210D02FE0ED
:100790000022C1F2220296420AD00022C1F23102A6
:1007A000964205D00022C1F23202964220D100BF0B
:1007B0008A684AB1012A14BFC0F814B0C0F810B05A
:1007C0004FF0080914E000BF4FF0040910E000BF2B
:1007D000CA6802F104090BE04FF0000908E000BF0D
:1007E000CA6802F1080903E0CA6802F10C0900BFF7
:1007F00002462646B8F5807F24BF0432203E1768A3
:100800000F25B54027EA050509FA06F635431560B8
:10081000CA79D2067FF582AF41F21803C4F202030F
:100820001A68AEF57E7642F001021A601A6802F08C
:1008300001020192019A2AF0030256F802B040F632
:100840000002C4F20102904208D040F60042C4F215
:10085000010290427FF420AF012725E7002723E71C
:1008600002B0BDE8F08F0000002A08BF0904016152
:100870007047000040F23410C2F200000068704778
:10088000002804BF01207047F0B581B0044690F8FD
:100890003D0028B9002084F83C00204600F048FACA
:1008A000242084F83D002068016821F001010160E6
:1008B000016841F400410160016821F400410160D8
:1008C00000F0EEFB636848F2A16CC0F2010C40F648
:1008D0000011C0F23D0163453CBF48F28041C0F2C7
:1008E0001E01884202D2012001B0F0BD4DF68361A5
:1008F000C4F21B31A0FB01122168970CD1F804E06F
:100900004FF496762EF03F0545EA92454D607743C9
:1009100048F638160D6AC0F24106A7FB067625F0A8
:100920003F07634538BF960C721C3A430A62CA6996
:1009300048F2A0664CF6FF77C0F20106B34222EA05
:1009400007020BD801385B00B0FBF3F001306FF306
:100950001F30042898BF04201BE000BFA76801389F
:1009600057B119277B43B0FBF3F001306FF31F3011
:1009700070B100F5804007E003EB4303B0FBF3F0F8
:1009800001306FF31F3018B100F5004001E000BFE7
:1009900001201043C8610868D4E9072320F0C00093
:1009A000104318430860886848F2FF3204F10C07CE
:1009B00090438CCF18431043A6698860C86820F024
:1009C000FF0038433043C860086840F00100086009
:1009D00000202021206484F83D10206384F83E002C
:1009E00001B0F0BD2DE9F04F85B0044600209946D6
:1009F00016460F460490FFF73DFF94F83D1020295E
:100A000027D10546206800BF816989071CD5FFF7FB
:100A100031FF411B20681A29F6D381698907F3D574
:100A200000202021206384F83D1084F83E00206CD3
:100A300004F13C0A40F020002064022000218AF8E2
:100A4000001005B0BDE8F08FA2461AF83C1F01293E
:100A500004D1022005B0BDE8F08F00BF01228AF862
:100A600000200368DDE90F180E9ADB0703D1036845
:100A700043F001030360036823F400630360222052
:100A800084F83D00402084F83E000020206462622B
:100A90006185608D394620850020CFF6FF70E062C9
:100AA000204632464B46CDE9008501F00DF918B1DC
:100AB000012005B0BDE8F08F208D022826D0012846
:100AC0000ED0002838D1002003902068416903919E
:100AD000816903910399016841F40071016037E075
:100AE0002068016821F480610160EFF3108072B624
:100AF0000020039020684169039181690391039963
:100B0000016841F40071016062B621E0206801686B
:100B100041F400610160EFF3108072B60020039091
:100B2000206841690391816903910399016821F467
:100B30008061016062B60BE02068016841F4806169
:100B4000016000210391416903918069039003983A
:100B5000208D002800F0CC80042740F208094BF2D9
:100B6000895BC0F20107C2F20009C1F2F84B2326EB
:100B70000EE000BF10690870606A218D013060626C
:100B8000481E2085618D01396185010400F0B08027
:100B900080B203280CD802282CD001284AD1204644
:100BA00041462A4601F06CFA002800F09C807FE75D
:100BB000204641462A4601F063FA00287FF478AFC8
:100BC0002068616A00690870606A2268411C208D93
:100BD000616201382085638D013B638553695B0742
:100BE000D3D580B20328C5D1106820F4806010608E
:100BF000C0E700BF2046394600224346009501F079
:100C0000EDF800287FF454AFEFF3108072B620683F
:100C1000616A026842F40072026000690870606AEA
:100C2000218D01306062481E2085608D013860850D
:100C300062B658E02046394600224346009501F04E
:100C4000CDF800287FF434AF2068016821F480617A
:100C50000160EFF3108072B62068616A0069087065
:100C6000606A218D0130013960622185618D013911
:100C70006185D9F80010C908A1FB0B12110A714354
:100C80000491049901390491049900293CD0216808
:100C90004A69520717D4049A013A0492049A9AB303
:100CA0004A6952070FD4049A013A0492049A5AB33B
:100CB0004A69520707D4049A013A0492049A1AB373
:100CC0004A695207DDD50A6842F400720A60096970
:100CD0000170606A218D01306062481E2085608D40
:100CE0000138608562B62068616A006943E700BF29
:100CF000202084F83D00002084F83E0000218AF87E
:100D0000001005B0BDE8F08F00202021206384F89A
:100D10003D1084F83E00206C40F02000206462B654
:100D2000012000218AF8001005B0BDE8F08F000016
:100D300010B586B0016845F20040C4F2000081425F
:100D40004FF00001CDE90411CDE9021102D006B047
:100D500010BD00BF41F21804C4F20204216800F57E
:100D6000384041F008012160216801F0080101913B
:100D70000199C0210291122103910321059102A939
:100D8000FFF76AFC606840F400106060606800F47F
:100D900000100190019806B010BD000040F2000064
:100DA00040F23411C2F20000C2F2000100780A6879
:100DB000104408607047000080B542F20000C4F2A1
:100DC0000200016841F010010160032000F07AF890
:100DD0000F2000F005F800F027F8002080BD00008B
:100DE00070B540F20006C2F2000640F20801327807
:100DF000C2F200014FF47A730968B3FBF2F20446C1
:100E0000B1FBF2F1084600F05FFB0F2C4FF001053B
:100E100008D838B94FF0FF3021460022002500F0F5
:100E200025F87460284670BD82B041F21800C4F203
:100E300002000168022241F001010160016801F035
:100E4000010101910199416841F080514160406880
:100E500000F08050009000980420C4F20100016866
:100E600062F31A61016002B07047000010B54EF6DF
:100E70000C5CCEF2000CDCF80030C3F3022E8EF0D6
:100E80000704042C28BF0424BEF103034FF0FF3EE7
:100E90000EFA04F438BF0023A14399400EFA03F37D
:100EA0009A43114300F00F0200F160430901043A34
:100EB00003F564436244002848BF02F10C03197033
:100EC00010BD00004EF60C51CEF200010A684FF63C
:100ED000FF031A4060F30A2242F0806040F0FD7088
:100EE00008607047002804BF012070472DE9F043D7
:100EF00081B042F20008C4F202080446D8F80000AB
:100F00000D4600F0070081420CD9D8F8000020F00F
:100F100007002843C8F80000D8F8000000F00700D8
:100F2000A8426CD1206841F204098107C4F2020989
:100F300017D5410705D5D9F8001041F4E061C9F88B
:100F40000010010705D5D9F8001041F46051C9F827
:100F50000010D9F80010A26821F0F0011143C9F87F
:100F60000010C00742D1D8F8000000F00700854209
:100F70000CD2D8F8000020F007002843C8F8000081
:100F8000D8F8000000F00700A84238D120684107D7
:100F900007D5D9F80010E26821F4E0611143C9F8DF
:100FA0000010000708D5D9F80000216920F460502E
:100FB00040EAC100C9F80000D9F8002002F00C0096
:100FC000082841F20020C0F27A004DD143F6AE036A
:100FD000C2F38341C0F60003595CD20338D440F613
:100FE0000010C0F23D0048433EE000BF606859F881
:100FF000041C022808D0012826D1890306D4012028
:1010000001B0BDE8F08300BF8901F8D5D9F8001020
:1010100021F003010843C9F80000FFF72BFC064646
:1010200041F28837D9F80000616800F00C00B0EB9D
:10103000810F98D0FFF71EFC801BB842F2D9032025
:1010400001B0BDE8F08300BF8907D8D5DEE700BF57
:10105000D9F8002043F6AC03C2F34042C0F60003C7
:101060009A5C4843B0FBF2F0D9F8001043F69402C2
:10107000C1F30311C0F60002515C40F2080220FAED
:1010800001F140F20400C2F200000068C2F2000266
:101090001160FFF7A5FE002001B0BDE8F08300005D
:1010A00040F2080041F20401C2F20000C4F2020161
:1010B0000068096843F6A402C1F30221C0F60002E9
:1010C000515CC84070470000002804BF01207047F1
:1010D0002DE9F04182B00446007841F20006C007D5
:1010E000C4F202060CD0706800F00C00042840F036
:1010F00081803068800303D56068002800F0468155
:10110000207880071BD5706810F00C0F09D070682C
:1011100000F00C00082840F087807068C00300F1E0
:1011200083803068800703D52069012840F02E8134
:101130003068616920F0F80040EAC1003060207832
:10114000000713D4207840072CD4E569002D00F067
:101150001881706800F00C00082840F0A780012D6D
:1011600040F00481012002B0BDE8F081A0690028B0
:1011700000F084800020C4F242200121C0F88014D5
:10118000FFF778FB054600BF706A800700F1B28068
:10119000FFF770FB401B0228F6D9032002B0BDE820
:1011A000F08100BFF0695FEAC00808D4F06940F040
:1011B0008050F061F06900F080500090009847F294
:1011C0000007C4F200073868C00549D4386840F405
:1011D00080703860FFF74EFB054600BF3868C005D9
:1011E0003ED4FFF747FB401B6428F7D9032002B029
:1011F000BDE8F081706800F00C00082803D1706829
:10120000C0033FF576AF61683068002900F00C81BB
:10121000B1F5A02F00F00081B1F5803F40F01A81B8
:1012200040F480301CE100BF2069002840F200003B
:10123000C4F2422000F0888001210160FFF71AFB10
:10124000054600BF306880073FF572AFFFF712FB1D
:10125000401B0228F6D9032002B0BDE8F08100BF90
:10126000E168306A002900F09D80052900F0928035
:10127000012940F0AF8040F00100B1E00020C4F24D
:1012800042200021C0F88014FFF7F4FA054600BFA1
:10129000706A80077FF556AFFFF7ECFA401B022813
:1012A000F6D9032002B0BDE8F08100BF0027C4F2E8
:1012B000422700203866FFF7DDFA022D05460DD1E2
:1012C0003068800140F1DE80FFF7D4FA401B02282D
:1012D0004FF00300F4D902B0BDE8F081306880011E
:1012E0004FD5FFF7C7FA401B02284FF00300F5D98E
:1012F000F1E700BF40F20800C2F20000006844F6C7
:10130000D351C1F26201A0FB0101480A019000BF64
:1013100000BF0198411E002801913FF413AF00BFA8
:101320000198411E002801913FF40CAF00BF0198C5
:10133000411E002801913FF405AF00BF0198411EF6
:1013400000280191E4D1FDE600210160FFF792FA47
:10135000054600BF306880077FF5F1AEFFF78AFAD7
:10136000401B02284FF00300F4D9B4E77068216AEB
:1013700000F480328A4209D1616A00F47010884218
:1013800004D1002002B0BDE8F08100BF012002B00E
:10139000BDE8F08140F004003062306A40F00100A6
:1013A0001EE000BF20F001003062306A20F004002F
:1013B0003062FFF75FFA054641F28837306A8007EE
:1013C00020D5FFF757FA401BB8424FF00300F5D97C
:1013D00081E700BF20F001003062306A20F0040095
:1013E0003062FFF747FA054641F28837306A8007D6
:1013F00008D4FFF73FFA401BB842F7D9032002B0E8
:10140000BDE8F081B8F1000F3FF59FAEF06920F024
:101410008050F06199E600BF40F480203060306871
:1014200040F480301CE000BF20F480303060306831
:1014300020F480203060FFF71DFA054630688003F5
:101440007FF55EAEFFF716FA401B64284FF00300ED
:10145000F4D940E720F480303060306820F48020F8
:101460003060FFF707FA0546306880033FF548AE65
:10147000FFF700FA401B6428F6D9032002B0BDE84C
:10148000F08100BF206AB0F5803F05D17168A26885
:1014900021F40031114371607168626A21F47411A2
:1014A00011430843706001203866FFF7E3F90446F2
:1014B000306880013FF565AFFFF7DCF9001B0228BB
:1014C0004FF00300F4D906E7411E0020B0EB116F86
:1014D0001CBF012070474EF21002CEF20002516094
:1014E0004EF62351CEF20001F0230B7007219060DD
:1014F0001160704790F83C20012A04BF0220704719
:10150000B0B501F108053CCDD1E900CE23F47C5300
:1015100022F470521A432EF4F0431A432CF4E043A1
:101520001A4324F4C0431A432A43C96922F480426F
:10153000036811435964002180F83C100020B0BDBD
:1015400090F83C20012A4FF0020236D010B580F806
:101550003D200268D2F804E0D2F808C00C682EF0F2
:101560007003234340F2FF74C4F20004A2425360AC
:101570000ADCB2F1804F13D040F20043C4F2000302
:101580009A420DD011E000BF42F60043C4F20103BD
:101590009A4205D040F60003C4F200039A4204D1F7
:1015A00049682CF08003194391600121002280F8E2
:1015B0003D1080F83C20BDE8104010467047000008
:1015C000002804BF0120704710B590F83D1031B9D4
:1015D000002180F83C10044600F070F820460221FB
:1015E00080F83D10016840F2FF740B68C4F20004FB
:1015F00042F6004CA142C4F2010C15DCB1F1804F5F
:101600001AD040F20042C4F20002914214D0A1422A
:1016100018DCB1F1804F1DD040F20042C4F200024C
:10162000914217D01AE000BF614505D040F6000294
:10163000C4F200029142EAD1826823F0700313439E
:10164000A142E6DD614505D040F60002C4F2000289
:10165000914203D1026923F440731343846923F058
:101660008002D0F804E0C368224361450A60CB627F
:10167000C1F828E002D14269CCF8302001224A6149
:101680000B69DB0703D00B6923F001030B6180F8C2
:10169000462080F83E2080F83F2080F8402080F8E7
:1016A000412080F8422080F8432080F8442080F8D0
:1016B000452080F83D20002010BD0000006842F663
:1016C0000041C4F20101884218BF704781B041F265
:1016D0001800C4F20200016841F400610160006872
:1016E00000F400600090009801B0704790F83C2032
:1016F000012A4FF002026CD080B580F83D20D0F86E
:1017000000C04FF67772DCF8083023EA0202CCF80A
:1017100008200B684F2B29DC1F2B45DD202B46D0E2
:10172000302B44D0402B40F0AF80D1F804E0C968A2
:10173000DCF82030DCF8202022F00102CCF8202058
:10174000DCF8182022F0F00242EA011123F00A022C
:1017500042EA0E02CCF81810CCF82020DCF8081071
:1017600041F0470121F0300128E000BF6F2B33DD4D
:10177000B3F5005F74D0B3F5805F21D0702B40F0DB
:101780008380D1E901E3C968DCF8082043EA0E034D
:1017900022F47F4243EA01211143CCF80810DCF81F
:1017A000081041F0770109E00BB1102B6CD1DCF887
:1017B000081021F07001194341F00701CCF808101E
:1017C0000022012180F83D10002180F83C10BDE886
:1017D00080401046704700BF502B21D0602B53D162
:1017E000D1F804E0C968DCF82030DCF8202022F0D1
:1017F0001002CCF82020DCF8182022F4704242EAD3
:10180000013123F0A00242EA0E12CCF81810CCF8F5
:101810002020DCF8081041F0670121F01001CDE72D
:10182000D1F804E0C968DCF82030DCF8202022F090
:101830000102CCF82020DCF8182022F0F00242EA65
:10184000011123F00A0242EA0E02CCF81810CCF87B
:101850002020DCF8081041F0570121F02001ADE70D
:10186000D1E901E3C968DCF8082043EA0E0322F459
:101870007F4243EA01211143CCF80810DCF808103C
:1018800041F480419AE700BF01229AE780B586B013
:10189000014640F60000C4F20100096800F510524C
:1018A00091424FF00001CDE90411CDE9021101D0C0
:1018B00006B080BD41F21801C4F202010A6842F08C
:1018C00004020A60096801F00401019101994FF4D2
:1018D000E061029102210391059102A9FEF7BCFE8D
:1018E00006B080BD90F83C30012B04BF0220704749
:1018F0004FEAB202032A00F2F1802DE9F043DFE85B
:1019000002F003A53B7500BF036842F600461D6A5E
:101910001A6AC4F2010622F001021A621A465C68D1
:1019200052F818CFB3428E68D1F800E025F00205D6
:1019300045EA06050CD1CE68D1E9057824F4407457
:1019400025F00C0526F004063C43354344EA080420
:101950002CF0730747EA0E075C609F614F680969C6
:101960005F631D629F6947F008079F619F6927F0C9
:1019700004079F61A6E000BF036842F600461D6AA7
:101980001A6AC4F2010622F480721A621A46D3F867
:1019900004C052F81CEFB3428E680C6825F4007541
:1019A00045EA06250FD1CE68D1E90598360240F206
:1019B000FF4725F44065BE4335432CF4405748EAC1
:1019C000090647EA061C2EF073072743C3F804C034
:1019D000DF614F680969DF631D62DF6947F008074F
:1019E000DF61DF6927F00407DF616BE0036842F61F
:1019F0000047D3F820C01A6AC4F2010722F48052CB
:101A00001A621A465C6852F81C5FD1F800E08E68D2
:101A1000BB4204D14F6924F4804444EA87142CF477
:101A2000005747EA063725F4E64646EA0E265C608C
:101A3000DE614E6809691E641F62DF6947F4006752
:101A4000DF61DF6927F48067DF613AE0036842F60F
:101A500000461D6A1A6AC4F2010622F010021A62D8
:101A60001A46D3F804C052F8184FB3428E68D1F822
:101A700000E025F0200545EA06150FD1CE68D1E932
:101A800005986FF0400725F0C00507EA06163543B4
:101A90002CF4406748EA090647EA860C24F4E64439
:101AA00044EA0E27C3F804C09F614F6809699F6329
:101AB0001D629F6947F400679F619F6927F48067F3
:101AC0009F6109021368194311600021BDE8F043CA
:101AD000002280F83C200846704700BF0121002208
:101AE00080F83C2008467047002804BF012070475A
:101AF00010B590F83D1031B9002180F83C10044633
:101B000000F070F82046022180F83D10016840F294
:101B1000FF740B68C4F2000442F6004CA142C4F208
:101B2000010C15DCB1F1804F1AD040F20042C4F232
:101B30000002914214D0A14218DCB1F1804F1DD0B7
:101B400040F20042C4F20002914217D01AE000BFF6
:101B5000614505D040F60002C4F200029142EAD18C
:101B6000826823F070031343A142E6DD614505D08E
:101B700040F60002C4F20002914203D1026923F44C
:101B800040731343846923F08002D0F804E0C368F3
:101B9000224361450A60CB62C1F828E002D1426964
:101BA000CCF8302001224A610B69DB0703D00B69B6
:101BB00023F001030B6180F8462080F83E2080F876
:101BC0003F2080F8402080F8412080F8422080F8B3
:101BD000432080F8442080F8452080F83D200020F4
:101BE00010BD000070470000C1B1042908D00829C9
:101BF00014BF41224022825C012A05D016E000BFBA
:101C00003F22825C012A11D10222082910D0042926
:101C100014BF80F8412080F83F200BE090F83E2070
:101C2000012A03D1022280F83E2003E00120704700
:101C300080F84020006801F01F010122036A8A40F9
:101C400023EA02010162036A42F64441C4F201013F
:101C50001A43A1F14403984202620FD040F2FF718F
:101C6000C4F20001884213DCB0F1804F1CD040F276
:101C70000041C4F20001884216D01CE00A6842F418
:101C800000420A6040F2FF71C4F200018842EBDDBD
:101C900042F60041C4F20101884205D040F600013D
:101CA000C4F20001884206D1816801F007010629CB
:101CB00004BF00207047016841F00101016000206D
:101CC00070470000FEE700002DE9F04782B00446AF
:101CD00000689A460B9D0A9E0368914643F4806211
:101CE000026002680F4642F48071016020464FF0A6
:101CF000011100223346009500F070F850B12068C1
:101D00000068C00544BF4FF400702064032002B097
:101D1000BDE8F08740F202082068C0F2010807F031
:101D2000FE0707612046414632462B4600F03CF94B
:101D300020B1012002B0BDE8F08700BF0020019073
:101D400020682A46416901918069314601900198D5
:101D5000204600F0DDF9B0B92068BAF1010F09D0D2
:101D60004FEA19210161204631462A4600F0D0F998
:101D700048B920685FFA89F10161204631462A4658
:101D800000F0C6F960B1206C0428D2D12068016847
:101D900041F400710160012002B0BDE8F08700BF8E
:101DA000206800220168334641F4807101602046BA
:101DB0004FF00111009500F011F800289FD147F075
:101DC000010C27682046414632462B46C7F810C012
:101DD00002B0BDE8F04700F0E7B800002DE9F0419F
:101DE000054600681E46144601F47F0201338FB297
:101DF00042D0DDF81880B2F5803F40F0878040691E
:101E00003840C01BB0FA80F04009844240F0C880DE
:101E10004EB924E040693840C01BB0FA80F0400958
:101E2000844240F0BD80FEF725FDA0EB0801286844
:101E3000B142EFD941693940C91BB1FA81F1490971
:101E40008C42E7D19BE000BF40693840C01BB0FA2C
:101E500080F0400984424FF0000040F0A280FEF77D
:101E600009FD286841693940C91BB1FA81F1490966
:101E70008C42E9D183E000BFB2F5803F24D100BF9E
:101E800041693940C91BB1FA81F149098C4240F0DE
:101E9000878041693940C91BB1FA81F149098C42F7
:101EA00040F07E8041693940C91BB1FA81F149098E
:101EB0008C4275D141693940C91BB1FA81F1490998
:101EC0008C42DDD06CE000BF81693940C91BB1FA9A
:101ED00081F149098C4263D181693940C91BB1FA4A
:101EE00081F149098C425BD181693940C91BB1FA42
:101EF00081F149098C4253D181693940C91BB1FA3A
:101F000081F149098C42DFD04AE000BF8069384046
:101F1000C01BB0FA80F04009844241D146B923E0A9
:101F200080693840C01BB0FA80F04009844237D144
:101F3000FEF7A0FCA0EB08012868B142F0D9816946
:101F40003940C91BB1FA81F149098C42E8D116E048
:101F500080693840C01BB0FA80F0400984424FF0DD
:101F6000000018BFBDE8F081FEF784FC2868816995
:101F70003940C91BB1FA81F149098C42E8D10020EE
:101F80002021286385F83D1085F83E00296C41F03A
:101F90002001296485F83C000120BDE8F08100BFE4
:101FA0000020BDE8F0810000F0B581B00446006873
:101FB0001D4643698FB203EA0701B94202D10020EE
:101FC00001B0F0BD4169164601323CD0490512D43A
:101FD0007EB300BFFEF74EFC411B2068B14203D91F
:101FE00041693940B9422BD141693940B942E6D003
:101FF00041694905EED5016841F4007101606FF453
:1020000080614161042000212022216384F83D2069
:1020100084F83E10226C1043206484F83C100120A8
:1020200001B0F0BD41693940B942C8D041694905A4
:10203000E1D4FEF71FFC206841693940B942F1D074
:102040002020E0E741694905D5D441693940B942CA
:10205000B5D041694905CED441693940B942AED0C5
:1020600041694905C7D441693940B942A7D041699E
:102070004905C0D441693940B942E3D19FE7000026
:1020800070B504460068154650F8143F5A063DD412
:102090000E4629B926E000BF50F8141F490635D472
:1020A0000168C90621D4FEF7E5FB411B2068B14257
:1020B000F2D941694906EFD400202021206384F839
:1020C0003D1084F83E00206C40F0200018E000BF76
:1020D000FEF7D0FB206850F8141F4906ECD50168C4
:1020E000490613D40168C906F2D56FF010010160EA
:1020F00000202021206384F83D1084F83E00206CED
:102100002064002084F83C00012070BD002070BDD8
:1021100070B50368044653F8140F000611D40E4638
:10212000481C29D086BB00BF1868400527D4FEF79D
:10213000A1FB236853F8140F000637D51868000672
:10214000F2D5002070BD00BF18680006F9D41868E9
:10215000400514D418680006F3D4186840050ED45E
:1021600018680006EDD41868400508D41868000601
:102170004FF0000048BF70BD18684005E4D56FF40B
:1021800080601860042012E0154603E053F8140F35
:102190000006D6D418684005F1D4FEF76BFB401B4F
:1021A0002368B042F2D958690006EFD420200021FC
:1021B0002022216384F83D2084F83E10226C1043D5
:1021C0002064012084F83C1070BD0000FEE7000090
:1021D000FEE700007047000070470000FEF7DEBD1C
:1021E00070470000FEE7000098B0FEF7E5FD002410
:1021F0000120CDE90644CDE90444019005904FF457
:10220000E0104FF4803102250A9001A8CDE90214B4
:10221000CDE90851FEF758FF20B1EFF3108072B6F8
:10222000FEE700BF0F20CDE90B054FF48060CDE93C
:102230000E040BA802210D94FEF754FE20B1EFF31B
:10224000108072B6FEE700BF002641F21800CDE90B
:102250000366CDE90166C4F20200016840F600455C
:1022600041F0200101600168C4F2010501F0200184
:102270000B910B990168002241F00801016001688F
:102280004FF4805401F008010B910B99016841F063
:102290000401016000684FF4805100F004000B90CD
:1022A0000B982846FEF7E0FA0120CDE9020602204D
:1022B000049001A928460194FEF7CEF940F2E0000F
:1022C000A5F53841C2F2000048F2A0624FF4804305
:1022D000C0F2010280E84600C0E90363C0E9056678
:1022E000C0E90766FEF7CCFA20B1EFF3108072B6B2
:1022F000FEE700BF40F27004C2F2000405F5005191
:10230000204640F8281F202140F2077280231796AC
:10231000CDE91566CDE91266CDE90766CDE905661A
:10232000CDE90366CDE90166C0E90161C0E9032694
:10233000C0E90563FFF744F920B1EFF3108072B6EE
:10234000FEE700BF4FF4805004F12806149014A952
:102350003046FFF7CBF928B1EFF3108072B600BF1B
:10236000FEE700BF3046FFF7BFFB28B1EFF3108058
:1023700072B600BFFEE700BF12A93046FFF7E0F8D3
:1023800020B1EFF3108072B6FEE700BF60200B9023
:102390000020CDE90C00CDE90E00CDE910000BA91D
:1023A00030460022FFF79EFA20B1EFF3108072B69C
:1023B000FEE700BF0BA930460422FFF793FA28B1CD
:1023C000EFF3108072B600BFFEE700BF0BA93046E6
:1023D0000822FFF787FA28B1EFF3108072B600BF2A
:1023E000FEE700BF4FF400500027069001A93046D9
:1023F0000597CDE90377CDE901770897FFF77AF8DC
:1024000020B1EFF3108072B6FEE700BF42F6344809
:102410003046C4F20108FFF739FA07202070002087
:10242000C4F240100021231DC4F2C00183C34FF049
:102430007C504FF07E52C4E90700606230460021B4
:102440002261FFF7D1FB30460421FFF7CDFB304678
:102450000821FFF7C9FBA06A0122416C41F4004149
:10246000416428464FF48051FEF7FEF90A20FEF73A
:10247000DFF82046FDF750FF40F2E00A40F6D07B3F
:1024800042F2F9194EF20007C2F2000AC4F2C90B77
:10249000C4F21909C4F2E04721E000BF20464FF022
:1024A0007C510022A561FDF7CBFF04F11C0661CE33
:1024B000394600F077FF00F0C1FEC8F8000028465A
:1024C000394600F06FFF00F0B9FEC8F8040030464E
:1024D000394600F067FF00F0B1FEC8F8080050462A
:1024E000FDF7D4FE2169606100F05CFF21780546AC
:1024F000084600F0DBFEE6680146284600F052FF81
:10250000314601F0D1F8594600F0A6F90021054600
:1025100000F061FD0028C1D1284600F0B3FC48F26C
:102520006E62CFF21B024B4600F0C2FA00F08EFA48
:102530000546B3E74100080218BF04200A0E18BF81
:1025400040F001004FF07F4232EA010108BF40F045
:102550000200012808BF05207047012101F04BB996
:102560000021084600F058BD6FF05E01080701F039
:1025700042B900002DE9F04D0D4614464FF07F4161
:10258000B1EB440F9EBF4FF0FF312960BDE8F08DE5
:102590004FF0004040EA0421C4F3C750783810F0EF
:1025A0001F024A4B4FEA601CC2F120067B44C4F371
:1025B000C750A0F178004FEA601003EB800053F899
:1025C0002C3008BFD0E901C612D0D0F804C0934027
:1025D0002CFA06F73B4387680CFA02FC27FA06F848
:1025E000C06807FA02F2F0404CEA080C42EA000622
:1025F000A3FB0132ACFB01C0A6FB016101EB0C06A1
:102600008E4234BF4FF0010C4FF0000CC1186144F2
:10261000BCF1000F02D0814202D903E0814201D215
:10262000012000E00020104400F120024FEA92183F
:102630008006CA0C40EA42304F03C5F8008000F023
:102640001DFE8246384600F031FE6FF0120101F0A7
:10265000D2F80746304600F029FE6FF0250101F060
:10266000CAF883463946504600F038FC594600F017
:1026700035FC00F500666FF30B065146304601F05D
:1026800013F8394601F010F8594601F003F81049E3
:1026900000F088FE07460F49304600F083FE3946B9
:1026A00000F01CFC07460C49304600F07BFE394622
:1026B00000F014FC14F0004F08BFBDE8F08DC8F125
:1026C000805180F000402960BDE8F08DC412000008
:1026D000DB0FC92F22AAFD290000C92F2DE9F843DD
:1026E000044602464F486946B0EB420F09D94FF005
:1026F000E640B0EB420F94BF00204FF0FF30009057
:1027000030E0494B22F00040834271D947492046CE
:1027100000F048FE00F08EFF804600F073FD00F0F0
:10272000030000904249404600F03CFE0546414906
:10273000404600F037FE06463F49404600F032FE74
:1027400007463E49404600F02DFE214600F0A2FF1C
:10275000394600F0A9FF314600F0A6FF294600F0F7
:10276000A3FF04462546009C002C45DB294614F0B7
:10277000010F08461CD000F015FE0646304900F057
:1027800011FE304900F0AAFB314600F00BFE2E4945
:1027900000F0A4FB314600F005FE294600F002FEE1
:1027A000294600F09BFB14F0020F1CD0BDE8F88313
:1027B00000F0F8FD0546254900F0F4FD244900F03D
:1027C0008DFB294600F0EEFD224900F087FB2946EB
:1027D00000F0E8FD4FF07E5100F080FB14F0020F96
:1027E00008BFBDE8F88380F00040BDE8F883FFE74C
:1027F0001046FFF7BFFEB4E76800B0F17F4F3CBF63
:102800004FF07E50BDE8F88307D14FF00100FDF78F
:10281000F9FCBDE8F843FFF7A3BE2846BDE8F8433E
:10282000FFF79BBEB61F927E490E494683F9223FB1
:102830001A61342C0020A23300A0FD390000C93FEA
:10284000336D4CB9DA82083CA0AA2ABEB93AB2BAB2
:10285000CA9F2A3DDDFFFFBE70B5054620F000404F
:10286000C0F1FF400C46C00F05D124F00040C0F17C
:10287000FF40C00F17D0284600F05CFE6FEAD05131
:1028800011F0FF0F08BF70BDE917B1EBE07F08BF83
:1028900070BD014664F31E01BDE870400A46014662
:1028A000104600F0F7BE4FF07F40B0EB450F18BF69
:1028B0005FEA4400DFD10120FDF7A4FCBDE87040D1
:1028C000FFF74EBE2DE9F8430446024652486946DA
:1028D000B0EB420F09D94FF0E640B0EB420F94BF86
:1028E00000204FF0FF30009030E04C4B22F00040D1
:1028F000834271D94A49204600F054FD00F09AFE07
:10290000804600F07FFC00F00300009045494046FF
:1029100000F048FD05464449404600F043FD0646A8
:102920004249404600F03EFD07464149404600F01E
:1029300039FD214600F0AEFE394600F0B5FE3146C5
:1029400000F0B2FE294600F0AFFE04462546009C8A
:10295000002C45DB294614F0010F08461ED000F07C
:1029600021FD0546334900F01DFD334900F0B6FA5C
:10297000294600F017FD314900F0B0FA294600F071
:1029800011FD4FF07E5100F0A9FA14F0020F08BFBC
:10299000BDE8F88380F00040BDE8F88300F002FD58
:1029A0000646274900F0FEFC264900F097FA31461A
:1029B00000F0F8FC244900F091FA314600F0F2FCF6
:1029C000294600F0EFFC294600F088FA14F0020FC7
:1029D000E0D1BDE8F883FFE71046FFF7CBFDB4E791
:1029E0006800B0F17F4F09D22846FFF7A3FD042805
:1029F00008BFFFF7B9FD2846BDE8F88306D10120DE
:102A0000FDF700FCBDE8F843FFF7AABD2846BDE886
:102A1000F843FFF7A2BD0000B61F927E490E49465B
:102A200083F9223F1A61342C0020A23300A0FD3923
:102A30000000C93FB93AB2BACA9F2A3DDDFFFFBEC6
:102A4000336D4CB9DA82083CA0AA2ABE21F00042BC
:102A500001F00043A2F16052B2F5801F28BFD2F10D
:102A60007F6C0BD95FEA001C43EAC20242EB507054
:102A700018BF704728BF20F001007047B2F5801FD3
:102A8000BCBF184670474FEA410C1CF5001F02D22C
:102A9000084600F0C9BD70B500F0B2F8000000892A
:102AA000FFF7F6BF4FF00040A0F580007047000030
:102AB00010B591EA030F48BF83F0004300F1FC809A
:102AC000841A71EB030C05D2121943EB0C03001BA3
:102AD00061EB0C014FEA1154A4EB135CDFF81CE12D
:102AE0001EEA430F18BF9EEA445F00F0748021EA9B
:102AF000045123EA0E0343F48013DCF1200E32D399
:102B000022FA0CFE10EB0E0023FA0CFE41EB0E0134
:102B1000CCF1200E03FA0EFE10EB0E00CCF1200ECD
:102B200051F10001B1F5801F32D201EB045112FACC
:102B30000EF2BDE8104058BF7047401C38BF5FEA36
:102B4000420218BF7047002814BF20F0010041F175
:102B500000014FEA410313F5001F38BF7047A1F190
:102B6000C04100F09BB8012A43EB0302ACF1200CFA
:102B7000DCF11F0E32BF4FF0000E23FA0CF310EB06
:102B8000030041EB0451B4EB115FD0D0A1EB045131
:102B900001F58011490801EB04515FEA30000ED3C2
:102BA00050F1000038BF12FA0EFE08D1BDE8104007
:102BB000C9E7401C38BF5FEA4202CAD1C3E7BDE89B
:102BC00010404FEA410313F5001F38BF7047A1F1D1
:102BD000C04100F063B89EEA445F08D011EA5E0F7E
:102BE000BDE8104004BF01F0004100207047BDE87F
:102BF000104070B500F004F864FBBE3E0000E0FF3A
:102C00000EF1020E2EF0030E5EF8046B364205D470
:102C1000012A43EB030515F5001F12D8012841EBEB
:102C2000010C1CF5001F0CD80ED14FEAD17C0CEB27
:102C30004C0C0CF1020C15F5001F08BF4CEBD37CBB
:102C400004E04FF0080C01E04FEAD37C0CEB4C059C
:102C500026FA05F606F00706B6F1040C06D20EEBCE
:102C6000860CBDE870404CF0010C6047DFE80CF0CA
:102C7000090B02024FF00041A1F500214FF00000C6
:102C800070BD19461046012851EB010418BFD4F558
:102C9000001484BF002001F0004170BD0808A0F5B9
:102CA00000114FEA3101704710B591EA030F48BF98
:102CB00083F000433FF504AF841A71EB030C07D295
:102CC0008CF0004C121943EB0C03001B61EB0C0160
:102CD0004FEA1154A4EB135CDFF8A4E11EEA430FA2
:102CE00018BF9EEA445F00F0B48021EA045123EA51
:102CF0006E035242C3EB6E0338BF5B1EDCF1200E45
:102D000025D322FA0CFE10EB0E0043FA0CFE41EB29
:102D10000E01CCF1200E03FA0EFE10EB0E00CCF1EA
:102D2000200E51F1000129D401EB045112FA0EF2E8
:102D3000BDE8104058BF7047401C1CBFB2F1004FA7
:102D4000704700280CBF491C20F00100704712EBAF
:102D5000020E43EB030218BF4FF0010E4EEA42028F
:102D6000ACF1200CDCF11E0E56D943FA0CFE10EB30
:102D70000E00CCF11E0E51F1FF31D5D50EF1010E32
:102D800012FA0EFE404141EB010101EB445C5FEAA7
:102D90005C5C10D901EB045110EBDE7038BFBEF162
:102DA000004FBDE8104018BF704700280CBF491CF9
:102DB00020F00100704734D24FEAD42C24F4006490
:102DC00011F500111BD0B1FA81F20B3AA41AA41E1E
:102DD000D2F12003914030FA03F31943904001EB04
:102DE000CC7101EB0451002CBDE81040A8BF704726
:102DF00001F1C04101F000414FF000007047B0FA0E
:102E000080F310FA03F102D1BDE810407047E41AD4
:102E1000173C4805C90AE2E701EB0451BDE8104040
:102E2000704749104FEA300001EB0451BDE81040F3
:102E300002E04FF0000170474A0008BF0042F8D09E
:102E4000B2F5001F28BF704701F000414FF00000AD
:102E500070479EEA445F07D011EA5E0FBDE810405C
:102E600004BF002100207047BDE8104070B5FFF797
:102E7000C7FE00BF40DFF63E104683F000417047BA
:102E80000000E0FF43004FEAD30C4FEA3C0C434004
:102E90001FBF40070CF1605113F0FE4F70471CF04C
:102EA000006F03D10CF00041002070470CF000438C
:102EB00043EA507040EACC0010B500F0F4FA00BFCD
:102EC000000000924FEA0001FFF7E8BE4FF000411A
:102ED000A1F500214FF000007047000090EA010FBB
:102EE00048BF81F0004100F1E683421A3CBF801ADE
:102EF00089184FEAD052A2EBD1534FF07F4C1CEA15
:102F0000410F18BF9CEA026F00F03B804FF0004C6D
:102F10004CEA00204CEA012121FA03FC10EB0C0CD6
:102F20001ED202F1FF325FEA1C2040EBC25038BFD4
:102F300070471CF07F0F4FEA400C18BFBCF17F4F69
:102F400038BF7047C3F12003994008BF20F001004B
:102F5000BCF17F4F38BF7047A0F1C04000F064BBA8
:102F60004FEA3C00000A40EBC25028BF1CF0FF0FA4
:102F70004FEA400CE6D018BFBCF17F4F38BF704716
:102F8000EAE79CEA026F05D010EA5C0F08BF00F088
:102F90000040704710B500F086FA00BF64FBBE3EEB
:102FA000014800F0F6BB00BF0000C07F10B500F084
:102FB000F5F80CBF0120002010BD10B500F0EEF8B0
:102FC00014BF0120002010BD10B500F083F98CBFA4
:102FD0000120002010BD10B500F07CF92CBF0120AD
:102FE000002010BD10B500F0A9F994BF0120002009
:102FF00010BD10B500F0A2F934BF0120002010BDB3
:10300000401058BFC0F14040491058BFC1F1404185
:103010008142EFF3008070474FF47F0C1CEAD0121E
:103020001EBF1CEAD11392EA0C0F93EA0C0F00F0BA
:10303000858090EA010F48BF42F4807240F4000C92
:1030400041F400002CF07F4120F07F4000B5A2EB5E
:10305000030281420FF2081CACEB504E9EF800E0D8
:10306000C0F100004FEA4E0E00FB0EFC38BF4900D5
:103070004FEA2C1C0CFB0EF34FEACE1E0EEB635EE8
:103080004FEA112C0EFB0CFC4FEAC1214FEA1C53F6
:1030900000FB031102F5FA024FEA112C0EFB0CFCA7
:1030A0004FEA01314FEADC4C00FB0C1142EB2242AB
:1030B000C14228BF09184CEB03335DF804EB10EB59
:1030C000410143EBC250B2F57C0F38BF704729D5A0
:1030D00012F0F00F1CBF00F1C04000F0004070473C
:1030E000008182838485868788898B8C8D8E8F91E1
:1030F0009293959697999A9C9D9FA0A2A3A5A7A805
:10310000AAACAEB0B2B3B5B7B9BCBEC0C2C5C7C930
:10311000CCCED1D4D7D9DCDFE2E6E9ECF0F3F7FA94
:10312000FE0000004FEA400C0CF1807CBCF17E4FA9
:1031300028BF7047B0F1C04000F076BA0CEAD11356
:1031400090EA010F48BF42F48072624538BF634580
:1031500007D213F47F0F16D080EA010000F0004080
:10316000704710B500F09FF9097EFC3E00F005B8ED
:1031700080EA010000F00040704780EA010000F0A2
:10318000004000F051BA12F47F0F04BF02487047AC
:1031900080EA010000F048BA0000C07F50EA010C4C
:1031A00000F113801CF5000F58BFBCF5000F01D4CF
:1031B0008842704707D710F5000F58BF11F5000F70
:1031C00015D488427047894270471CF5000F04D51A
:1031D000BCF5000FF7D5814270474FF0807C1CEBA7
:1031E000400F38BF1CEB410F01D28142704710B530
:1031F00000F059F9922449004FF000504FF08051EF
:10320000FFF7FEBE41000B0ED3F19E0208D950F429
:1032100000034FEA032323FA02F048BF40427047FD
:1032200010B500F040F900BF49922480002070479B
:103230006FF0004282EA200070470000C10DD1F11A
:103240009E0206DB4FEA002343F0004323FA02F01C
:103250007047004207D54FEA4001B1F1FE4F02D25C
:103260004FF00000704710B500F01DF9499224801E
:10327000002070476FEA20007047000010F0004106
:1032800048BF4042B0FA80F310FA03F2C3F19D0345
:103290000BD051EAC35101EB1220530638BF7047DF
:1032A00000F1010008BF20F001007047B0FA80F380
:1032B00010FA03F2C3F19D030AD0D90501EB1220E5
:1032C000530638BF704700F1010008BF20F001002D
:1032D0007047000050EA010C00F113801CF5000F4C
:1032E00058BFBCF5000F01D48842704707D710F5CE
:1032F000000F58BF11F5000F15D48842704789425E
:1033000070471CF5000F04D5BCF5000FF7D58142BE
:1033100070474FF0807C1CEB400F38BF1CEB410F17
:1033200001D28142704710B500F0BDF892244900E7
:103330004FF080504FF00051FFF762BE50EA010C91
:1033400000F113801CF5000F58BFBCF5000F01D42D
:103350008842704707D710F5000F58BF11F5000FCE
:1033600015D488427047894270471CF5000F04D578
:10337000BCF5000FF7D5814270474FF0807C1CEB05
:10338000400F38BF1CEB410F01D28142704710B58E
:1033900000F089F8922449004FF000504FF080511E
:1033A000FFF72EBE4FF47F0C1CEAD0121EBF1CEAA2
:1033B000D11392EA0C0F93EA0C0F00F0478090EAC9
:1033C000010F48BF42F480724FF0004C4CEA0020DD
:1033D0004CEA012102EB0302A0FB0113A2F500025B
:1033E000002918BF43F001035B0028BF4FEA3303F5
:1033F00042EB22425FEA132C4CEBC2502EBFBCEBD7
:10340000436FB2F57C0F70474FEA036CBCF1004F7D
:1034100008BF20F00100B2F57C0F38BF70470BD514
:1034200082F0FF0212F5803FC8BF704700F1C04034
:10343000D8BF00F00040704700F5000C5FEA4C0C6C
:1034400048BF7047B0F1C04000F0EEB80CEAD113AD
:1034500090EA010F48BF42F48072624538BF63456D
:1034600004D280EA010000F00040704710B500F07F
:103470001AF800BF8900013E00F007B800F009B853
:103480005FEA410C5FEA1C6C08D080EA010000F0A2
:10349000CBB85FEA400C5FEA1C6CF6D14FF00040FD
:1034A000A0F5800070470EF1020E2EF0030E5EF8BC
:1034B000044B244204D44FEA4102B2F17F4F11D8A9
:1034C0004FEA4003B3F17F4F0CD80ED14FEAD07CC6
:1034D0000CEB4C0C0CF1020CB2F17F4F08BF4CEB23
:1034E000D17C04E04FF0080C01E04FEAD17C0CEBFA
:1034F0004C0324FA03F404F00704B4F1040C06D2DC
:103500000EEB840CBDE810404CF0010C6047DFE886
:103510000CF0070802024FF00040A0F5800010BD3B
:103520000846420018BFD2F1807288BF00F0004008
:1035300010BD00004FF07F4C3CEA410318BF3CEA4D
:10354000400200F062804FF47F0C0CEAD11310F0BF
:10355000004F18BF43F005031CEAD01218BF13EA4E
:103560000C0F00F057804FF0004C4CEA00204CEA62
:103570000121A3F580339A4210DD23F00203B0F15C
:10358000004F06D343F00203401ABCBF404283F011
:1035900001034FEA4000A2F58032ECE74FEA224CEB
:1035A000BCEB234F08DB884206D31CD0A0EB4100C4
:1035B000C0F1000083F0010340001DD217D40DD0EC
:1035C000B0FA80FC0CF1010C00FA0CF0A2EB0C42FA
:1035D000D2F1000C12DB4FEAC37070474FEA437020
:1035E00000F00040704713F0020FE5D0DEE74FEA2D
:1035F0004000B2F58032EBDD002AE9DD4FEAC2126D
:1036000042EA502040EAC370704710B5FFF74BFF05
:10361000EDFFFF3E1CEAD11F02D000F000407047D2
:10362000004870470000C07FFF2141EAD050C0052C
:10363000704700005FEA400C5FEA1C6CBCF17F033E
:1036400014D4D3F1170240F31C804FF0010C0CFA94
:1036500002FCACF10103034020EA0300B3EB5C027F
:1036600008BF10EA0C0F88BF60447047B3F1FF3FFA
:1036700028BF5FEA002C00F0004088BF40F07E5079
:103680007047BCF1FF0FB8BF704710B5FFF70BFFD5
:1036900040DBB6BE80F0004090EA010F7FF525AC1C
:1036A00081F0004100F007B890EA010F48BF81F0B7
:1036B00000413FF51AAC421A04D882F00042A0EB58
:1036C000020011444FEAD052A2EBD1534FF07F4C8D
:1036D0001CEA410F18BF9CEA026F4AD04FF0004C21
:1036E0004CEA00204CEA012121FA03FCB0EB0C0C5F
:1036F0000FD412F0FE0F36D05FEA4C001DD5001239
:1037000040EBC25038BF70471CF03F0F18BF7047E6
:103710000BE05FEA1C20A2F1010240EBC25038BF6F
:1037200070471CF07F0F18BF7047C3F1200399400A
:1037300014BF401E20F0010070474FEA122380089A
:1037400008BF7047B0FA80FCA2EB0C02CCF1280C49
:1037500060FA0CF093EA122F04BF00EBC2507047DE
:103760004FEAC3707047130A5FEADC1008BF704766
:10377000F6E79CEA026F04D010EA5C0F08BF002055
:10378000704710B5FFF78FFE40DFF63E81F0004036
:1037900070470CF00F03092B08BF082000F0518080
:1037A0000A2B0BD0082B18BF704708BF1CF0400F26
:1037B0000AD04FF000004FF0000170471CF0400F9E
:1037C00018BF4FF0004070471CF0100F08D000F0F9
:1037D0007F4220F0704342EAD3014FEA43707047C2
:1037E00000F0604021F07F4242EA000201F07F4099
:1037F00040EA727070474FF0FF0212EAD0521CBFCD
:1038000092F0FF038B42C2BFD14200EBC150704720
:10381000002A0AD0002B0BD000F000400029A4BFE2
:1038200040F0FE4040F40000704700F00040704758
:1038300043024FF00B0C18BF4CF0806C7FF4B0AB20
:1038400070471CF4801F11D01CF4E02F03D06FEAE6
:10385000CC31490070474FF04050EFF3008222F026
:10386000704242EA000282F3008870474FF0000085
:1038700070470000000000006E83F9A22915444E35
:10388000D15727FCC0DD34F5999562DB4190433C6C
:10389000AB6351FE000000000000000001020304C1
:1038A00006070809000000000102030401020203E8
:1038B0000405060708090A0B0C0D0E0F1010000076
:1038C000E03800080000002010000000500100084F
:1038D000F0380008100000202807000070010008E0
:1038E000010000001000000000127A00000000003B
:04000005080000ED02
:00000001FF
