:020000040800F2
:1000000080070020B5010008292200081D1D0008F6
:1000100025220008110300083D220008000000000E
:100020000000000000000000000000003122000875
:1000300015030008000000002D22000835220008EA
:10004000CF010008CF010008CF010008CF01000850
:10005000CF010008CF010008CF010008CF01000840
:10006000CF010008CF010008CF010008CF01000830
:10007000CF010008CF010008CF010008CF01000820
:10008000CF010008CF010008CF010008CF01000810
:10009000CF010008CF010008CF010008CF01000800
:1000A000CF010008CF010008CF010008CF010008F0
:1000B000CF010008CF010008CF010008CF010008E0
:1000C000CF010008CF010008CF010008CF010008D0
:1000D000CF010008CF010008CF010008CF010008C0
:1000E000CF010008CF010008CF01000800F002F89E
:1000F00000F050F814A696E8000CB244B344DA4578
:1001000001D100F047F8BAE80F000FA696E83000DA
:10011000A5EB040504EB0607AAEB0704A7F101070A
:100120004FEA15154FEA3414A4F10104AC4201D38F
:1001300000F030F813F0010F18BFFB1A43F0010371
:1001400000F001F8DBE71847E0350000003600005A
:10015000103A24BF78C878C1FAD8520724BF30C8F3
:1001600030C144BF04680C60704700007047000055
:100170000023002400250026103A28BF78C1FBD8B0
:10018000520728BF30C148BF0B6070471FB51FBD65
:1001900010B510BD00F044F81146FFF7F7FF02F06C
:1001A0004FF800F062F803B4FFF7F2FF03BC00F071
:1001B00065F800000948804709480047FEE7FEE768
:1001C000FEE7FEE7FEE7FEE7FEE7FEE7FEE7FEE707
:1001D00004480549054A064B7047000039220008CB
:1001E000ED0000088001002080070020800300202F
:1001F0008003002070477047704710B500F008F882
:10020000006810BD10B5044600F002F8046010BD8F
:100210000048704710000020004870471000002080
:100220007546FFF7F9FFAE4605006946534620F0D4
:100230000700854618B020B5FFF7CAFFBDE820408B
:100240004FF000064FF000074FF000084FF0000B92
:10025000AC46ACE8C009ACE8C009ACE8C009ACE801
:10026000C00921F007018D46704710B50446AFF371
:1002700000802046BDE81040FFF795BF01491820D7
:10028000ABBEFEE72600020070470000B0B584B0A8
:1002900004460020ADF80E0002200DF10E014FF0D3
:1002A000640CCDE9001020466C210C220123CDF80E
:1002B00008C000F0C3FBA8B141F21005C4F202056A
:1002C000286840F400102860012000F0DDF928685B
:1002D00020F400102860204600F0FEFA002004B050
:1002E000B0BD00BF9DF80E009DF80F1000F00F008C
:1002F00041EA002002F00EFF4FF0665102F086FF47
:1003000040F6DB71C4F2C90102F080FF04B0B0BD59
:10031000FEE70000704700002DE9F04381B004467D
:10032000002042F63448E061204600214FF0804230
:10033000C4F2010800F084F84EF200094FF47A7517
:10034000C4F2E04904F12007C1CF494602F05EFF44
:1003500002F0A8FEC8F800003046494602F056FFF9
:1003600002F0A0FEC8F804003846494602F04EFFED
:1003700002F098FEC8F80800012000F085F9013D60
:10038000E0D140F2E000C2F20000FFF77FFF6169B8
:1003900002F03CFF21790546084602F0BBFE01460B
:1003A000284602F033FF40F6DB75C4F2C905294642
:1003B00002F0CEFB0021064602F04FFD0746304614
:1003C000294602F0BFFC002F08BF304620612046BE
:1003D0000021002200F034F84EF20006D4E90805AE
:1003E000C4F2E046A46A314602F010FF02F05AFE61
:1003F000C8F800002846314602F008FF02F052FE1D
:10040000C8F804002046314602F000FF02F04AFE20
:100410000146C820C8F8081001B0BDE8F04300F05C
:1004200033B90000017100214FF07E5CC0E9041C6B
:100430004FF07C51C0E90223C0E908118162704786
:100440002DE9F047C4680F468046D0F81C90084656
:100450002146164602F0ECFC84F00045002818BF47
:1004600027463846294602F0F8FC00283046214647
:1004700018BF2F4602F0DCFC002818BF2646304685
:10048000294602F0EAFC0028484618BF2E4602F032
:1004900095FB8246484602F09DFA0446384651468E
:1004A00002F0B4FE05463046214602F0AFFE294672
:1004B00003F02EF881462046394602F0A7FE044696
:1004C0003046514602F0A2FE214602F03BFC4BF2C0
:1004D000D731C3F65D7102F099FE044648464FF0ED
:1004E0003F4102F093FE2146074602F02BFC0646F0
:1004F0003846214603F00CF807463046494602F0DC
:1005000097FC4C46002818BF34463846214602F076
:100510008FFC00283046494618BF3C4602F09DFC3F
:100520004D46002818BF35463846294602F095FC4E
:10053000002818BF3D462046294602F003FC4FF034
:100540007C5102F063FE04464846214602F0E0FF7B
:1005500005463046214602F0DBFF06463846214676
:1005600002F0D6FFD8F8084081462846214602F01E
:1005700087FC4FF07C5102F0E5FB0746C8F82000ED
:100580003046214602F07CFC4FF07C5102F0DAFB51
:100590000646C8F824004846214602F071FC4FF098
:1005A0007C5102F0CFFB0546C8F8280038464FF0D2
:1005B0007E514FF07E5402F03BFC18B1C8F8204049
:1005C00009E000BF38460021002402F038FC002872
:1005D00008BFC8F8204030464FF07E514FF07E549F
:1005E00002F026FC10B1C8F8244008E03046002193
:1005F000002402F024FC002808BFC8F82440284644
:100600004FF07E514FF07E5402F012FC20B1C8F83A
:100610002840BDE8F08700BF28460021002402F0F2
:100620000EFC002808BFC8F82840BDE8F08700008D
:10063000F0B581B00A46416904468261104602F075
:10064000E5FD21790546084602F064FD266901466C
:10065000284602F0DBFD314602F05AFF40F6DB751A
:10066000C4F2C905294602F073FA0021064602F0D9
:10067000F4FB07463046294602F064FB002F08BF12
:100680003046E06101B0F0BDB0B5044600F01EF99F
:10069000054640F20000C2F200000078611C18BF5D
:1006A000044400BF00F012F9401BA042FAD3B0BDD1
:1006B0002DE9F04F82B00E68002E00F0FD8041F26F
:1006C0000042C4F20102042340F2004E904208BFEF
:1006D00003234FF6FF7CC4F2010E00930024012394
:1006E000C1F2100C4FF0000A4FF000094BE000BFC0
:1006F00041F20002C4F20102009F904208BF0227AB
:1007000004F00C030F229A402BEA020207FA03F3CB
:100710004FEA9A051A4346F825204E6840F20C45E8
:10072000F202DEF8082054BF22EA080242EA080278
:10073000C4F20105CEF808202A68B30254BF22EAA9
:10074000080242EA08022A60B303DEF8042054BF1C
:1007500022EA080242EA0802F303CEF80420DEF897
:1007600000204FF0010354BF22EA080242EA0802C7
:10077000CEF800200E680AF1010A36FA0AF204F1F6
:10078000040400F0998003FA0AFB16EA0B08F1D082
:100790004E68664512DC122E56D8DFE806F0350B9F
:1007A0004D4955555555555555555555555555451D
:1007B000510000BFD1F80C9046E000BF4FF6FF7229
:1007C000C1F2210296420FDC0022C1F211029642D0
:1007D0001AD00022C1F21202964215D00022C1F2B4
:1007E0002102964210D02FE00022C1F2220296424E
:1007F0000AD00022C1F23102964205D00022C1F295
:100800003202964220D100BF8A684AB1012A14BF41
:10081000C0F814B0C0F810B04FF0080914E000BFE1
:100820004FF0040910E000BFCA6802F104090BE0B0
:100830004FF0000908E000BFCA6802F1080903E0B0
:10084000CA6802F10C0900BF02462646B8F5807F4F
:1008500024BF0432203E17680F25B54027EA05055E
:1008600009FA06F635431560CA79D2067FF582AFDC
:1008700041F21803C4F202031A68AEF57E7642F024
:1008800001021A601A6802F001020192019A2AF02C
:10089000030256F802B040F60002C4F20102904290
:1008A00008D040F60042C4F2010290427FF420AF2B
:1008B000012725E7002723E702B0BDE8F08F0000FD
:1008C000002A08BF090401617047000040F27C1053
:1008D000C2F2000000687047002804BF0120704782
:1008E000F0B581B0044690F83D0028B9002084F8A6
:1008F0003C00204600F048FA242084F83D0020689F
:10090000016821F001010160016841F400410160CA
:10091000016821F40041016000F0EEFB636848F2D9
:10092000A16CC0F2010C40F60011C0F23D0163451C
:100930003CBF48F28041C0F21E01884202D2012031
:1009400001B0F0BD4DF68361C4F21B31A0FB011272
:100950002168970CD1F804E04FF496762EF03F050D
:1009600045EA92454D60774348F638160D6AC0F265
:100970004106A7FB067625F03F07634538BF960C76
:10098000721C3A430A62CA6948F2A0664CF6FF77C5
:10099000C0F20106B34222EA07020BD801385B001D
:1009A000B0FBF3F001306FF31F30042898BF042030
:1009B0001BE000BFA768013857B119277B43B0FB84
:1009C000F3F001306FF31F3070B100F5804007E0A5
:1009D00003EB4303B0FBF3F001306FF31F3018B1AA
:1009E00000F5004001E000BF01201043C861086825
:1009F000D4E9072320F0C00010431843086088683A
:100A000048F2FF3204F10C0790438CCF1843104397
:100A1000A6698860C86820F0FF0038433043C8608A
:100A2000086840F00100086000202021206484F85C
:100A30003D10206384F83E0001B0F0BD2DE9F04F79
:100A400085B004460020994616460F460490FFF7ED
:100A50003DFF94F83D10202927D10546206800BFAE
:100A6000816989071CD5FFF731FF411B20681A29CE
:100A7000F6D381698907F3D500202021206384F80B
:100A80003D1084F83E00206C04F13C0A40F0200048
:100A90002064022000218AF8001005B0BDE8F08F24
:100AA000A2461AF83C1F012904D1022005B0BDE876
:100AB000F08F00BF01228AF800200368DDE90F18DB
:100AC0000E9ADB0703D1036843F001030360036858
:100AD00023F400630360222084F83D00402084F862
:100AE0003E000020206462626185608D3946208569
:100AF0000020CFF6FF70E062204632464B46CDE93B
:100B0000008501F00DF918B1012005B0BDE8F08FA6
:100B1000208D022826D001280ED0002838D10020B0
:100B200003902068416903918169039103990168E9
:100B300041F40071016037E02068016821F48061B0
:100B40000160EFF3108072B60020039020684169C5
:100B50000391816903910399016841F40071016077
:100B600062B621E02068016841F400610160EFF3A2
:100B7000108072B60020039020684169039181695A
:100B800003910399016821F48061016062B60BE072
:100B90002068016841F4806101600021039141698E
:100BA0000391806903900398208D002800F0CC8089
:100BB000042740F208094BF2895BC0F20107C2F238
:100BC0000009C1F2F84B23260EE000BF106908703F
:100BD000606A218D01306062481E2085618D013977
:100BE0006185010400F0B08080B203280CD802288F
:100BF0002CD001284AD1204641462A4601F06CFA01
:100C0000002800F09C807FE7204641462A4601F0FC
:100C100063FA00287FF478AF2068616A0069087081
:100C2000606A2268411C208D616201382085638DD5
:100C3000013B638553695B07D3D580B20328C5D1D7
:100C4000106820F480601060C0E700BF204639467D
:100C500000224346009501F0EDF800287FF454AFE0
:100C6000EFF3108072B62068616A026842F4007285
:100C7000026000690870606A218D01306062481E60
:100C80002085608D0138608562B658E0204639467F
:100C900000224346009501F0CDF800287FF434AFE0
:100CA0002068016821F480610160EFF3108072B662
:100CB0002068616A00690870606A218D013001391D
:100CC00060622185618D01396185D9F80010C908FC
:100CD000A1FB0B12110A714304910499013904918B
:100CE000049900293CD021684A69520717D4049A14
:100CF000013A0492049A9AB34A6952070FD4049AAB
:100D0000013A0492049A5AB34A69520707D4049AE2
:100D1000013A0492049A1AB34A695207DDD50A6867
:100D200042F400720A6009690170606A218D013025
:100D30006062481E2085608D0138608562B620683B
:100D4000616A006943E700BF202084F83D0000206D
:100D500084F83E0000218AF8001005B0BDE8F08F4D
:100D600000202021206384F83D1084F83E00206C90
:100D700040F02000206462B6012000218AF80010B3
:100D800005B0BDE8F08F000010B586B0016845F2EF
:100D90000040C4F2000081424FF00001CDE904118F
:100DA000CDE9021102D006B010BD00BF41F2180417
:100DB000C4F20204216800F5384041F008012160C6
:100DC000216801F0080101910199C02102911221CD
:100DD00003910321059102A9FFF76AFC606840F4C2
:100DE00000106060606800F400100190019806B087
:100DF00010BD000040F2000040F27C11C2F2000081
:100E0000C2F2000100780A681044086070470000D0
:100E100080B542F20000C4F20200016841F0100106
:100E20000160032000F07AF80F2000F005F800F0D0
:100E300027F8002080BD000070B540F20006C2F225
:100E4000000640F208013278C2F200014FF47A73D2
:100E50000968B3FBF2F20446B1FBF2F1084600F078
:100E60005FFB0F2C4FF0010508D838B94FF0FF3069
:100E700021460022002500F025F87460284670BD48
:100E800082B041F21800C4F202000168022241F06F
:100E900001010160016801F00101019101994168BE
:100EA00041F080514160406800F08050009000980F
:100EB0000420C4F20100016862F31A61016002B00B
:100EC0007047000010B54EF60C5CCEF2000CDCF85A
:100ED0000030C3F3022E8EF00704042C28BF042434
:100EE000BEF103034FF0FF3E0EFA04F438BF0023B7
:100EF000A14399400EFA03F39A43114300F00F0205
:100F000000F160430901043A03F564436244002898
:100F100048BF02F10C03197010BD00004EF60C51D1
:100F2000CEF200010A684FF6FF031A4060F30A226E
:100F300042F0806040F0FD7008607047002804BFF8
:100F4000012070472DE9F04381B042F20008C4F25D
:100F500002080446D8F800000D4600F00700814260
:100F60000CD9D8F8000020F007002843C8F800008A
:100F7000D8F8000000F00700A8426CD1206841F2C8
:100F800004098107C4F2020917D5410705D5D9F82C
:100F9000001041F4E061C9F80010010705D5D9F847
:100FA000001041F46051C9F80010D9F80010A2688F
:100FB00021F0F0011143C9F80010C00742D1D8F860
:100FC000000000F0070085420CD2D8F8000020F0A5
:100FD00007002843C8F80000D8F8000000F0070018
:100FE000A84238D12068410707D5D9F80010E26837
:100FF00021F4E0611143C9F80010000708D5D9F8C1
:101000000000216920F4605040EAC100C9F80000E6
:10101000D9F8002002F00C00082841F20020C0F2AC
:101020007A004DD143F21673C2F38341C0F6000338
:10103000595CD20338D440F60010C0F23D0048435A
:101040003EE000BF606859F8041C022808D001285F
:1010500026D1890306D4012001B0BDE8F08300BF8A
:101060008901F8D5D9F8001021F003010843C9F827
:101070000000FFF72BFC064641F28837D9F8000044
:10108000616800F00C00B0EB810F98D0FFF71EFCF8
:10109000801BB842F2D9032001B0BDE8F08300BF45
:1010A0008907D8D5DEE700BFD9F8002043F21473D2
:1010B000C2F34042C0F600039A5C4843B0FBF2F032
:1010C000D9F8001043F2FC62C1F30311C0F600022C
:1010D000515C40F2080220FA01F140F20400C2F231
:1010E00000000068C2F200021160FFF7A5FE0020B8
:1010F00001B0BDE8F083000040F2080041F20401B5
:10110000C2F20000C4F202010068096843F20C72E6
:10111000C1F30221C0F60002515CC84070470000D4
:10112000002804BF012070472DE9F04182B0044639
:10113000007841F20006C007C4F202060CD07068C5
:1011400000F00C00042840F081803068800303D553
:101150006068002800F04681207880071BD5706801
:1011600010F00C0F09D0706800F00C00082840F057
:1011700087807068C00300F183803068800703D5E2
:101180002069012840F02E813068616920F0F80064
:1011900040EAC10030602078000713D4207840076F
:1011A0002CD4E569002D00F01881706800F00C0067
:1011B000082840F0A780012D40F00481012002B0F2
:1011C000BDE8F081A069002800F084800020C4F20E
:1011D00042200121C0F88014FFF778FB054600BFCC
:1011E000706A800700F1B280FFF770FB401B022895
:1011F000F6D9032002B0BDE8F08100BFF0695FEAD4
:10120000C00808D4F06940F08050F061F06900F047
:1012100080500090009847F20007C4F20007386839
:10122000C00549D4386840F480703860FFF74EFB41
:10123000054600BF3868C0053ED4FFF747FB401B9A
:101240006428F7D9032002B0BDE8F081706800F08F
:101250000C00082803D17068C0033FF576AF6168C1
:101260003068002900F00C81B1F5A02F00F000815A
:10127000B1F5803F40F01A8140F480301CE100BF9E
:101280002069002840F20000C4F2422000F088806B
:1012900001210160FFF71AFB054600BF3068800797
:1012A0003FF572AFFFF712FB401B0228F6D903206F
:1012B00002B0BDE8F08100BFE168306A002900F0AB
:1012C0009D80052900F09280012940F0AF8040F018
:1012D0000100B1E00020C4F242200021C0F88014D7
:1012E000FFF7F4FA054600BF706A80077FF556AF36
:1012F000FFF7ECFA401B0228F6D9032002B0BDE844
:10130000F08100BF0027C4F2422700203866FFF7B3
:10131000DDFA022D05460DD13068800140F1DE80F6
:10132000FFF7D4FA401B02284FF00300F4D902B0B3
:10133000BDE8F081306880014FD5FFF7C7FA401B48
:1013400002284FF00300F5D9F1E700BF40F2080092
:10135000C2F20000006844F6D351C1F26201A0FB62
:101360000101480A019000BF00BF0198411E0028FA
:1013700001913FF413AF00BF0198411E0028019175
:101380003FF40CAF00BF0198411E002801913FF4CB
:1013900005AF00BF0198411E00280191E4D1FDE690
:1013A00000210160FFF792FA054600BF3068800710
:1013B0007FF5F1AEFFF78AFA401B02284FF00300D9
:1013C000F4D9B4E77068216A00F480328A4209D106
:1013D000616A00F47010884204D1002002B0BDE8B8
:1013E000F08100BF012002B0BDE8F08140F00400B0
:1013F0003062306A40F001001EE000BF20F00100C2
:101400003062306A20F004003062FFF75FFA054670
:1014100041F28837306A800720D5FFF757FA401B22
:10142000B8424FF00300F5D981E700BF20F001007A
:101430003062306A20F004003062FFF747FA054658
:1014400041F28837306A800708D4FFF73FFA401B23
:10145000B842F7D9032002B0BDE8F081B8F1000F1F
:101460003FF59FAEF06920F08050F06199E600BF33
:1014700040F480203060306840F480301CE000BFD1
:1014800020F480303060306820F480203060FFF736
:101490001DFA0546306880037FF55EAEFFF716FA49
:1014A000401B64284FF00300F4D940E720F480305B
:1014B0003060306820F480203060FFF707FA05467E
:1014C000306880033FF548AEFFF700FA401B642800
:1014D000F6D9032002B0BDE8F08100BF206AB0F564
:1014E000803F05D17168A26821F400311143716019
:1014F0007168626A21F4741111430843706001201D
:101500003866FFF7E3F90446306880013FF565AFC0
:10151000FFF7DCF9001B02284FF00300F4D906E7BF
:10152000411E0020B0EB116F1CBF012070474EF22E
:101530001002CEF2000251604EF62351CEF20001AD
:10154000F0230B70072190601160704790F83C20E9
:10155000012A04BF02207047B0B501F108053CCD57
:10156000D1E900CE23F47C5322F470521A432EF4B6
:10157000F0431A432CF4E0431A4324F4C0431A43C3
:101580002A43C96922F48042036811435964002147
:1015900080F83C100020B0BD90F83C20012A4FF0AC
:1015A000020236D010B580F83D200268D2F804E07F
:1015B000D2F808C00C682EF07003234340F2FF7489
:1015C000C4F20004A24253600ADCB2F1804F13D08F
:1015D00040F20043C4F200039A420DD011E000BF74
:1015E00042F60043C4F201039A4205D040F60003DC
:1015F000C4F200039A4204D149682CF080031943D5
:1016000091600121002280F83D1080F83C20BDE867
:101610001040104670470000002804BF01207047AA
:1016200010B590F83D1031B9002180F83C10044607
:1016300000F070F82046022180F83D10016840F269
:10164000FF740B68C4F2000442F6004CA142C4F2DD
:10165000010C15DCB1F1804F1AD040F20042C4F207
:101660000002914214D0A14218DCB1F1804F1DD08C
:1016700040F20042C4F20002914217D01AE000BFCB
:10168000614505D040F60002C4F200029142EAD161
:10169000826823F070031343A142E6DD614505D063
:1016A00040F60002C4F20002914203D1026923F421
:1016B00040731343846923F08002D0F804E0C368C8
:1016C000224361450A60CB62C1F828E002D1426939
:1016D000CCF8302001224A610B69DB0703D00B698B
:1016E00023F001030B6180F8462080F83E2080F84B
:1016F0003F2080F8402080F8412080F8422080F888
:10170000432080F8442080F8452080F83D200020C8
:1017100010BD0000006842F60041C4F20101884299
:1017200018BF704781B041F21800C4F2020001688E
:1017300041F400610160006800F4006000900098CE
:1017400001B0704790F83C20012A4FF002026CD0A3
:1017500080B580F83D20D0F800C04FF67772DCF8F5
:10176000083023EA0202CCF808200B684F2B29DC52
:101770001F2B45DD202B46D0302B44D0402B40F092
:10178000AF80D1F804E0C968DCF82030DCF8202014
:1017900022F00102CCF82020DCF8182022F0F00220
:1017A00042EA011123F00A0242EA0E02CCF81810B4
:1017B000CCF82020DCF8081041F0470121F030017E
:1017C00028E000BF6F2B33DDB3F5005F74D0B3F5B5
:1017D000805F21D0702B40F08380D1E901E3C9689C
:1017E000DCF8082043EA0E0322F47F4243EA012199
:1017F0001143CCF80810DCF8081041F0770109E03B
:101800000BB1102B6CD1DCF8081021F070011943DA
:1018100041F00701CCF808100022012180F83D10AA
:10182000002180F83C10BDE880401046704700BFA2
:10183000502B21D0602B53D1D1F804E0C968DCF8DB
:101840002030DCF8202022F01002CCF82020DCF838
:10185000182022F4704242EA013123F0A00242EA49
:101860000E12CCF81810CCF82020DCF8081041F04B
:10187000670121F01001CDE7D1F804E0C968DCF878
:101880002030DCF8202022F00102CCF82020DCF807
:10189000182022F0F00242EA011123F00A0242EA83
:1018A0000E02CCF81810CCF82020DCF8081041F01B
:1018B000570121F02001ADE7D1E901E3C968DCF867
:1018C000082043EA0E0322F47F4243EA0121114338
:1018D000CCF80810DCF8081041F480419AE700BF0A
:1018E00001229AE780B586B0014640F60000C4F2B6
:1018F0000100096800F5105291424FF00001CDE956
:101900000411CDE9021101D006B080BD41F21801E9
:10191000C4F202010A6842F004020A60096801F098
:101920000401019101994FF4E061029102210391B8
:10193000059102A9FEF7BCFE06B080BD90F83C30D0
:10194000012B04BF022070474FEAB202032A00F2C3
:10195000F1802DE9F043DFE802F003A53B7500BFFD
:10196000036842F600461D6A1A6AC4F2010622F0B4
:1019700001021A621A465C6852F818CFB3428E68A8
:10198000D1F800E025F0020545EA06050CD1CE6845
:10199000D1E9057824F4407425F00C0526F00406FE
:1019A0003C43354344EA08042CF0730747EA0E072A
:1019B0005C609F614F6809695F631D629F6947F0C2
:1019C00008079F619F6927F004079F61A6E000BF99
:1019D000036842F600461D6A1A6AC4F2010622F440
:1019E00080721A621A46D3F804C052F81CEFB34250
:1019F0008E680C6825F4007545EA06250FD1CE687F
:101A0000D1E90598360240F2FF4725F44065BE4310
:101A100035432CF4405748EA090647EA061C2EF0E5
:101A200073072743C3F804C0DF614F680969DF63A8
:101A30001D62DF6947F00807DF61DF6927F00407EF
:101A4000DF616BE0036842F60047D3F820C01A6AF2
:101A5000C4F2010722F480521A621A465C6852F8F6
:101A60001C5FD1F800E08E68BB4204D14F6924F4BA
:101A7000804444EA87142CF4005747EA063725F4DB
:101A8000E64646EA0E265C60DE614E6809691E6421
:101A90001F62DF6947F40067DF61DF6927F4806751
:101AA000DF613AE0036842F600461D6A1A6AC4F232
:101AB000010622F010021A621A46D3F804C052F846
:101AC000184FB3428E68D1F800E025F0200545EAB2
:101AD00006150FD1CE68D1E905986FF0400725F0C3
:101AE000C00507EA061635432CF4406748EA0906A4
:101AF00047EA860C24F4E64444EA0E27C3F804C0FF
:101B00009F614F6809699F631D629F6947F4006781
:101B10009F619F6927F480679F61090213681943D9
:101B200011600021BDE8F043002280F83C20084607
:101B3000704700BF0121002280F83C200846704712
:101B4000002804BF0120704710B590F83D1031B94E
:101B5000002180F83C10044600F070F82046022175
:101B600080F83D10016840F2FF740B68C4F2000475
:101B700042F6004CA142C4F2010C15DCB1F1804FD9
:101B80001AD040F20042C4F20002914214D0A142A5
:101B900018DCB1F1804F1DD040F20042C4F20002C7
:101BA000914217D01AE000BF614505D040F600020F
:101BB000C4F200029142EAD1826823F07003134319
:101BC000A142E6DD614505D040F60002C4F2000204
:101BD000914203D1026923F440731343846923F0D3
:101BE0008002D0F804E0C368224361450A60CB62FA
:101BF000C1F828E002D14269CCF8302001224A61C4
:101C00000B69DB0703D00B6923F001030B6180F83C
:101C1000462080F83E2080F83F2080F8402080F861
:101C2000412080F8422080F8432080F8442080F84A
:101C3000452080F83D20002010BD000070470000C6
:101C4000C1B1042908D0082914BF41224022825C76
:101C5000012A05D016E000BF3F22825C012A11D183
:101C60000222082910D0042914BF80F8412080F8EE
:101C70003F200BE090F83E20012A03D1022280F899
:101C80003E2003E00120704780F84020006801F00A
:101C90001F010122036A8A4023EA02010162036AEA
:101CA00042F64441C4F201011A43A1F144039842AF
:101CB00002620FD040F2FF71C4F20001884213DCCF
:101CC000B0F1804F1CD040F20041C4F200018842C4
:101CD00016D01CE00A6842F400420A6040F2FF712C
:101CE000C4F200018842EBDD42F60041C4F201017A
:101CF000884205D040F60001C4F20001884206D1B6
:101D0000816801F00701062904BF002070470168BF
:101D100041F001010160002070470000FEE7000073
:101D20002DE9F04782B0044600689A460B9D0A9E52
:101D30000368914643F48062026002680F4642F4F1
:101D40008071016020464FF001110022334600955A
:101D500000F070F850B120680068C00544BF4FF42F
:101D600000702064032002B0BDE8F08740F2020852
:101D70002068C0F2010807F0FE07076120464146CF
:101D800032462B4600F03CF920B1012002B0BDE8FC
:101D9000F08700BF0020019020682A464169019128
:101DA0008069314601900198204600F0DDF9B0B914
:101DB0002068BAF1010F09D04FEA192101612046CC
:101DC00031462A4600F0D0F948B920685FFA89F117
:101DD0000161204631462A4600F0C6F960B1206C08
:101DE0000428D2D12068016841F40071016001200B
:101DF00002B0BDE8F08700BF2068002201683346CA
:101E000041F48071016020464FF00111009500F00F
:101E100011F800289FD147F0010C27682046414661
:101E200032462B46C7F810C002B0BDE8F04700F0BC
:101E3000E7B800002DE9F041054600681E4614464B
:101E400001F47F0201338FB242D0DDF81880B2F581
:101E5000803F40F0878040693840C01BB0FA80F076
:101E60004009844240F0C8804EB924E040693840BF
:101E7000C01BB0FA80F04009844240F0BD80FEF7FC
:101E800025FDA0EB08012868B142EFD9416939402E
:101E9000C91BB1FA81F149098C42E7D19BE000BF2F
:101EA00040693840C01BB0FA80F0400984424FF0CE
:101EB000000040F0A280FEF709FD28684169394022
:101EC000C91BB1FA81F149098C42E9D183E000BF15
:101ED000B2F5803F24D100BF41693940C91BB1FA36
:101EE00081F149098C4240F0878041693940C91B22
:101EF000B1FA81F149098C4240F07E804169394054
:101F0000C91BB1FA81F149098C4275D14169394047
:101F1000C91BB1FA81F149098C42DDD06CE000BFE8
:101F200081693940C91BB1FA81F149098C4263D1F9
:101F300081693940C91BB1FA81F149098C425BD1F1
:101F400081693940C91BB1FA81F149098C4253D1E9
:101F500081693940C91BB1FA81F149098C42DFD04E
:101F60004AE000BF80693840C01BB0FA80F04009E9
:101F7000844241D146B923E080693840C01BB0FAA1
:101F800080F04009844237D1FEF7A0FCA0EB0801A5
:101F90002868B142F0D981693940C91BB1FA81F191
:101FA00049098C42E8D116E080693840C01BB0FA7C
:101FB00080F0400984424FF0000018BFBDE8F08176
:101FC000FEF784FC286881693940C91BB1FA81F1A8
:101FD00049098C42E8D100202021286385F83D1072
:101FE00085F83E00296C41F02001296485F83C0009
:101FF0000120BDE8F08100BF0020BDE8F0810000B5
:10200000F0B581B0044600681D4643698FB203EA0B
:102010000701B94202D1002001B0F0BD4169164666
:1020200001323CD0490512D47EB300BFFEF74EFC0E
:10203000411B2068B14203D941693940B9422BD1D3
:1020400041693940B942E6D041694905EED5016898
:1020500041F4007101606FF480614161042000214E
:102060002022216384F83D2084F83E10226C104326
:10207000206484F83C10012001B0F0BD4169394072
:10208000B942C8D041694905E1D4FEF71FFC206878
:1020900041693940B942F1D02020E0E74169490562
:1020A000D5D441693940B942B5D041694905CED44A
:1020B00041693940B942AED041694905C7D4416947
:1020C0003940B942A7D041694905C0D44169394076
:1020D000B942E3D19FE7000070B504460068154699
:1020E00050F8143F5A063DD40E4629B926E000BFE9
:1020F00050F8141F490635D40168C90621D4FEF7EB
:10210000E5FB411B2068B142F2D941694906EFD491
:1021100000202021206384F83D1084F83E00206CCC
:1021200040F0200018E000BFFEF7D0FB206850F818
:10213000141F4906ECD50168490613D40168C90685
:10214000F2D56FF01001016000202021206384F897
:102150003D1084F83E00206C2064002084F83C0090
:10216000012070BD002070BD70B50368044653F8AF
:10217000140F000611D40E46481C29D086BB00BFA0
:102180001868400527D4FEF7A1FB236853F8140F05
:10219000000637D518680006F2D5002070BD00BFD4
:1021A00018680006F9D41868400514D418680006A9
:1021B000F3D4186840050ED418680006EDD41868EA
:1021C000400508D4186800064FF0000048BF70BDF5
:1021D00018684005E4D56FF480601860042012E0B0
:1021E000154603E053F8140F0006D6D418684005CE
:1021F000F1D4FEF76BFB401B2368B042F2D958695B
:102200000006EFD4202000212022216384F83D2005
:1022100084F83E10226C10432064012084F83C10A6
:1022200070BD0000FEE70000FEE700007047000000
:1022300070470000FEF7DEBD70470000FEE70000BB
:102240009AB0FEF7E5FD00240120CDE90844CDE970
:102250000644039007904FF4E0104FF480310225BC
:102260000C9003A8CDE90414CDE90A51FEF758FFFC
:1022700020B1EFF3108072B6FEE700BF0F20CDE96A
:102280000D054FF48060CDE910040DA802210F94D4
:10229000FEF754FE20B1EFF3108072B6FEE700BFE8
:1022A000002541F21800CDE90555CDE90355C4F2EA
:1022B0000200016840F6004441F02001016001681D
:1022C000C4F2010401F020010D910D990168002272
:1022D00041F00801016001684FF4805601F00801E7
:1022E0000D910D99016841F00401016000684FF4FF
:1022F000805100F004000D900D982046FEF7E0FAA2
:102300000120CDE904050220069003A9204603968A
:10231000FEF7CEF940F2E000A4F53841C2F2000029
:1023200041F680224FF48043C0F2060280E8260086
:10233000C0E90353C0E90555C0E90755FEF7CCFADB
:1023400020B1EFF3108072B6FEE700BF40F2341008
:1023500004F50051C2F2000020228027C0E90015D8
:1023600000F108011995CDE91755CDE91455CDE9CE
:102370000955CDE90755CDE90555CDE9035540F29D
:1023800007732CC1C0E90557FFF746F920B1EFF3F9
:10239000108072B6FEE700BF4FF48050169040F2F6
:1023A0003410C2F2000016A9FFF7CCF920B1EFF308
:1023B000108072B6FEE700BF40F23410C2F2000097
:1023C000FFF7BEFB20B1EFF3108072B6FEE700BF4F
:1023D00040F23410C2F2000014A9FFF7DDF828B172
:1023E000EFF3108072B600BFFEE700BF60200D90D3
:1023F0000020CDE90E00CDE91000CDE9120040F239
:102400003410C2F200000DA90022FFF797FA28B19C
:10241000EFF3108072B600BFFEE700BF40F2341049
:10242000C2F200000DA90422FFF788FA20B1EFF3F1
:10243000108072B6FEE700BF40F23410C2F2000016
:102440000DA90822FFF77AFA20B1EFF3108072B6D7
:10245000FEE700BF40F234154FF40050C2F2000511
:102460000027089003A928460797CDE90577CDE90D
:1024700003770A97FFF76AF820B1EFF3108072B67E
:10248000FEE700BF2846FFF72DFA40F27006C2F2C1
:10249000000640F2000806F144090022C4F2C00818
:1024A000C4F24012484607214346FDF7BBFF2846C9
:1024B0000021FFF7C5FB28460421FFF7C1FB284692
:1024C0000821FFF7BDFB28680122416C41F400415F
:1024D000416420464FF48051FEF7F2F90A20FEF7DE
:1024E000D3F84846CDF80490FDF716FF40F2E0001F
:1024F000C2F20000FDF7CAFE4DF20A71C3F6234195
:10250000C6E90407C6E90671FEF7E0F94CF6CD41CD
:1025100043F2333206F12003C3F64C61C3F6337243
:1025200087C3C6E90C78C6E90E78FEF7CFF93064A8
:1025300067E000BF5046002100F07AFC00284FF011
:102540007E5008BF82465846514600F099FC3063E1
:102550008BF000495F460299404600F057FE316813
:10256000F56A0291B16B8246404600F0D1FF2146E8
:1025700000F086FC01462846C6F8388000F046FE8A
:1025800004465046394600F0DDFB214600F0DAFBF8
:102590005946044600F04CFC002818BF5C46204613
:1025A000494600F05AFC002818BF4C467460019C54
:1025B00002992046FEF73CF8716820460022FDF79C
:1025C0003FFF06F164084EF2000598E81101C4F2DD
:1025D000E045294600F01AFE00F064FD42F634475B
:1025E000C4F2010738602046294600F00FFE00F0D3
:1025F00059FD78604046294600F008FE00F052FD83
:10260000B860FEF763F9F168411A0229F9D3F06066
:1026100040F2E000C2F20000FDF738FE07463060ED
:10262000FEF754F931690446356A3062384602973C
:1026300000F06EFF40F6DB77C4F24907394680466A
:1026400000F004FC40F6DB7A40F6DB7BCCF2C90AF2
:10265000CCF2490B20BB4046514600F073FB394693
:10266000804600F0F3FBD8B94046514600F06AFBC3
:102670003946804600F0EAFB90B94046514600F0EA
:1026800061FB3946804600F0E1FB48B940465146BF
:1026900000F058FB3946804600F0CAFB0028DAD12A
:1026A0004046594600F0CBFB40F6DB79C4F2C9093D
:1026B00020BB4046494600F045FB5946804600F0A5
:1026C000BEFBD8B94046494600F03CFB594680461F
:1026D00000F0B5FB90B94046494600F033FB59463F
:1026E000804600F0ACFB48B94046494600F02AFB62
:1026F0005946804600F0B1FB0028DAD1601B00F09B
:1027000009FD0021C4F27A4100F0BAFB0021044621
:1027100000F08EFB002841F26F20C3F6832008BF33
:1027200004464046394600F083FB05464046514684
:1027300000F008FB0746002D08BF474638465946BB
:1027400000F08BFB05463846494600F0FBFA002DA9
:1027500008BF384602993161214600F091FBD6E965
:1027600006457061214600F0D3FE0146284600F080
:102770004DFD214600F0E6FA0546B06140F20C003E
:10278000C2F20000D0F80080B560FEF79FF8316C0F
:102790000746401A00F0BEFC0021C4F27A4100F066
:1027A0006FFB4BF21771C3F6D101044600F040FBFA
:1027B000002841F26F20C3F6832008BF044640463C
:1027C0002946376400F0A4FED6E9091A356B029158
:1027D000D6F83CB02146804600F018FD294600F0AE
:1027E000B1FA01463063504600F010FD59460746E5
:1027F00000F02CFB00283FF49DAE8BF000493846DA
:10280000494600F01CFB00287FF4A5AE504600218D
:1028100000F00EFB00284FF07E5008BF824648466D
:10282000514600F02DFB4F46306394E6410008020C
:1028300018BF04200A0E18BF40F001004FF07F427D
:1028400032EA010108BF40F00200012808BF05205C
:102850007047012100F003BF0021084600F010BBC3
:102860006FF05E01080700F0FABE00002DE9F04DA0
:102870000D4614464FF07F41B1EB440F9EBF4FF021
:10288000FF312960BDE8F08D4FF0004040EA04219F
:10289000C4F3C750783810F01F024A4B4FEA601C4F
:1028A000C2F120067B44C4F3C750A0F178004FEA80
:1028B000601003EB800053F82C3008BFD0E901C64C
:1028C00012D0D0F804C093402CFA06F73B43876837
:1028D0000CFA02FC27FA06F8C06807FA02F2F04088
:1028E0004CEA080C42EA0006A3FB0132ACFB01C033
:1028F000A6FB016101EB0C068E4234BF4FF0010CC8
:102900004FF0000CC1186144BCF1000F02D08142AD
:1029100002D903E0814201D2012000E000201044EE
:1029200000F120024FEA92188006CA0C40EA4230B9
:102930004F03C5F8008000F0D5FB8246384600F012
:10294000E9FB6FF0120100F08AFE0746304600F006
:10295000E1FB6FF0250100F082FE834639465046C8
:1029600000F0F0F9594600F0EDF900F500666FF35C
:102970000B065146304600F0CBFD394600F0C8FD4D
:10298000594600F0BBFD104900F040FC07460F49D6
:10299000304600F03BFC394600F0D4F907460C49BC
:1029A000304600F033FC394600F0CCF914F0004F0B
:1029B00008BFBDE8F08DC8F1805180F0004029606B
:1029C000BDE8F08D340E0000DB0FC92F22AAFD29CF
:1029D0000000C92F2DE9F843044602464F486946D6
:1029E000B0EB420F09D94FF0E640B0EB420F94BF75
:1029F00000204FF0FF30009030E0494B22F00040C3
:102A0000834271D94749204600F000FC00F046FDA2
:102A1000804600F02BFB00F0030000904249404646
:102A200000F0F4FB05464149404600F0EFFB064646
:102A30003F49404600F0EAFB07463E49404600F069
:102A4000E5FB214600F05AFD394600F061FD3146B4
:102A500000F05EFD294600F05BFD04462546009C23
:102A6000002C45DB294614F0010F08461CD000F06D
:102A7000CDFB0646304900F0C9FB304900F062F951
:102A8000314600F0C3FB2E4900F05CF9314600F0FE
:102A9000BDFB294600F0BAFB294600F053F914F0BB
:102AA000020F1CD0BDE8F88300F0B0FB05462549B5
:102AB00000F0ACFB244900F045F9294600F0A6FBE4
:102AC000224900F03FF9294600F0A0FB4FF07E516B
:102AD00000F038F914F0020F08BFBDE8F88380F069
:102AE0000040BDE8F883FFE71046FFF7BFFEB4E7FC
:102AF0006800B0F17F4F3CBF4FF07E50BDE8F883D7
:102B000007D14FF00100FDF77DFBBDE8F843FFF76B
:102B1000A3BE2846BDE8F843FFF79BBEB61F927ED2
:102B2000490E494683F9223F1A61342C0020A23312
:102B300000A0FD390000C93F336D4CB9DA82083C72
:102B4000A0AA2ABEB93AB2BACA9F2A3DDDFFFFBE8B
:102B500070B5054620F00040C0F1FF400C46C00FA4
:102B600005D124F00040C0F1FF40C00F17D0284627
:102B700000F014FC6FEAD05111F0FF0F08BF70BDD8
:102B8000E917B1EBE07F08BF70BD014664F31E0199
:102B9000BDE870400A460146104600F0AFBC4FF059
:102BA0007F40B0EB450F18BF5FEA4400DFD1012042
:102BB000FDF728FBBDE87040FFF74EBE2DE9F84356
:102BC0000446024652486946B0EB420F09D94FF01D
:102BD000E640B0EB420F94BF00204FF0FF30009072
:102BE00030E04C4B22F00040834271D94A492046E4
:102BF00000F00CFB00F052FC804600F037FA00F0C9
:102C0000030000904549404600F000FB054644495A
:102C1000404600F0FBFA06464249404600F0F6FA0C
:102C200007464149404600F0F1FA214600F066FCB3
:102C3000394600F06DFC314600F06AFC294600F090
:102C400067FC04462546009C002C45DB294614F011
:102C5000010F08461ED000F0D9FA0546334900F0AE
:102C6000D5FA334900F06EF8294600F0CFFA314921
:102C700000F068F8294600F0C9FA4FF07E5100F0E4
:102C800061F814F0020F08BFBDE8F88380F000403F
:102C9000BDE8F88300F0BAFA0646274900F0B6FA14
:102CA000264900F04FF8314600F0B0FA244900F010
:102CB00049F8314600F0AAFA294600F0A7FA294659
:102CC00000F040F814F0020FE0D1BDE8F883FFE710
:102CD0001046FFF7CBFDB4E76800B0F17F4F09D293
:102CE0002846FFF7A3FD042808BFFFF7B9FD2846D3
:102CF000BDE8F88306D10120FDF784FABDE8F8436A
:102D0000FFF7AABD2846BDE8F843FFF7A2BD0000C3
:102D1000B61F927E490E494683F9223F1A61342C30
:102D20000020A23300A0FD390000C93FB93AB2BA71
:102D3000CA9F2A3DDDFFFFBE336D4CB9DA82083CE5
:102D4000A0AA2ABE90EA010F48BF81F0004100F11D
:102D5000E683421A3CBF801A89184FEAD052A2EB90
:102D6000D1534FF07F4C1CEA410F18BF9CEA026F11
:102D700000F03B804FF0004C4CEA00204CEA01216F
:102D800021FA03FC10EB0C0C1ED202F1FF325FEAB9
:102D90001C2040EBC25038BF70471CF07F0F4FEA39
:102DA000400C18BFBCF17F4F38BF7047C3F1200300
:102DB000994008BF20F00100BCF17F4F38BF704739
:102DC000A0F1C04000F064BB4FEA3C00000A40EBB9
:102DD000C25028BF1CF0FF0F4FEA400CE6D018BFCE
:102DE000BCF17F4F38BF7047EAE79CEA026F05D01D
:102DF00010EA5C0F08BF00F00040704710B500F00B
:102E000086FA00BF64FBBE3E014800F0F6BB00BF7F
:102E10000000C07F10B500F0F5F80CBF01200020C5
:102E200010BD10B500F0EEF814BF0120002010BD59
:102E300010B500F083F98CBF0120002010BD10B543
:102E400000F07CF92CBF0120002010BD10B500F06F
:102E5000A9F994BF0120002010BD10B500F0A2F91F
:102E600034BF0120002010BD401058BFC0F14040C9
:102E7000491058BFC1F140418142EFF300807047D3
:102E80004FF47F0C1CEAD0121EBF1CEAD11392EA49
:102E90000C0F93EA0C0F00F0858090EA010F48BFF9
:102EA00042F4807240F4000C41F400002CF07F41A9
:102EB00020F07F4000B5A2EB030281420FF2081C14
:102EC000ACEB504E9EF800E0C0F100004FEA4E0E11
:102ED00000FB0EFC38BF49004FEA2C1C0CFB0EF324
:102EE0004FEACE1E0EEB635E4FEA112C0EFB0CFC7C
:102EF0004FEAC1214FEA1C5300FB031102F5FA020D
:102F00004FEA112C0EFB0CFC4FEA01314FEADC4C6E
:102F100000FB0C1142EB2242C14228BF09184CEBC6
:102F200003335DF804EB10EB410143EBC250B2F503
:102F30007C0F38BF704729D512F0F00F1CBF00F18D
:102F4000C04000F0004070470081828384858687FE
:102F500088898B8C8D8E8F919293959697999A9C58
:102F60009D9FA0A2A3A5A7A8AAACAEB0B2B3B5B7C7
:102F7000B9BCBEC0C2C5C7C9CCCED1D4D7D9DCDF9D
:102F8000E2E6E9ECF0F3F7FAFE0000004FEA400C4D
:102F90000CF1807CBCF17E4F28BF7047B0F1C0407F
:102FA00000F076BA0CEAD11390EA010F48BF42F460
:102FB0008072624538BF634507D213F47F0F16D085
:102FC00080EA010000F00040704710B500F09FF962
:102FD000097EFC3E00F005B880EA010000F00040E8
:102FE000704780EA010000F0004000F051BA12F48E
:102FF0007F0F04BF0248704780EA010000F048BA22
:103000000000C07F50EA010C00F113801CF5000F96
:1030100058BFBCF5000F01D48842704707D710F5A0
:10302000000F58BF11F5000F15D488427047894230
:1030300070471CF5000F04D5BCF5000FF7D5814291
:1030400070474FF0807C1CEB400F38BF1CEB410FEA
:1030500001D28142704710B500F059F9922449001D
:103060004FF000504FF08051FFF7FEBE41000B0EB5
:10307000D3F19E0208D950F400034FEA032323FA48
:1030800002F048BF4042704710B500F040F900BF61
:1030900049922480002070476FF0004282EA2000AD
:1030A00070470000C10DD1F19E0206DB4FEA0023FC
:1030B00043F0004323FA02F07047004207D54FEA7D
:1030C0004001B1F1FE4F02D24FF00000704710B541
:1030D00000F01DF949922480002070476FEA20001B
:1030E0007047000010F0004148BF4042B0FA80F342
:1030F00010FA03F2C3F19D030BD051EAC35101EB67
:103100001220530638BF704700F1010008BF20F0BD
:1031100001007047B0FA80F310FA03F2C3F19D0387
:103120000AD0D90501EB1220530638BF704700F1D1
:10313000010008BF20F001007047000050EA010CB8
:1031400000F113801CF5000F58BFBCF5000F01D42F
:103150008842704707D710F5000F58BF11F5000FD0
:1031600015D488427047894270471CF5000F04D57A
:10317000BCF5000FF7D5814270474FF0807C1CEB07
:10318000400F38BF1CEB410F01D28142704710B590
:1031900000F0BDF8922449004FF080504FF00051EC
:1031A000FFF762BE50EA010C00F113801CF5000F1E
:1031B00058BFBCF5000F01D48842704707D710F5FF
:1031C000000F58BF11F5000F15D48842704789428F
:1031D00070471CF5000F04D5BCF5000FF7D58142F0
:1031E00070474FF0807C1CEB400F38BF1CEB410F49
:1031F00001D28142704710B500F089F8922449004D
:103200004FF000504FF08051FFF72EBE4FF47F0C6F
:103210001CEAD0121EBF1CEAD11392EA0C0F93EAEB
:103220000C0F00F0478090EA010F48BF42F4807213
:103230004FF0004C4CEA00204CEA012102EB030263
:10324000A0FB0113A2F50002002918BF43F00103FF
:103250005B0028BF4FEA330342EB22425FEA132CA4
:103260004CEBC2502EBFBCEB436FB2F57C0F7047E6
:103270004FEA036CBCF1004F08BF20F00100B2F52B
:103280007C0F38BF70470BD582F0FF0212F5803FEC
:10329000C8BF704700F1C040D8BF00F00040704781
:1032A00000F5000C5FEA4C0C48BF7047B0F1C0401D
:1032B00000F0EEB80CEAD11390EA010F48BF42F4D7
:1032C0008072624538BF634504D280EA010000F095
:1032D0000040704710B500F01AF800BF8900013EA9
:1032E00000F007B800F009B85FEA410C5FEA1C6C17
:1032F00008D080EA010000F0CBB85FEA400C5FEA3A
:103300001C6CF6D14FF00040A0F5800070470EF124
:10331000020E2EF0030E5EF8044B244204D44FEA52
:103320004102B2F17F4F11D84FEA4003B3F17F4F12
:103330000CD80ED14FEAD07C0CEB4C0C0CF1020CEB
:10334000B2F17F4F08BF4CEBD17C04E04FF0080C8A
:1033500001E04FEAD17C0CEB4C0324FA03F404F0B7
:103360000704B4F1040C06D20EEB840CBDE8104047
:103370004CF0010C6047DFE80CF0070802024FF048
:103380000040A0F5800010BD0846420018BFD2F1F1
:10339000807288BF00F0004010BD00004FF07F4CED
:1033A0003CEA410318BF3CEA400200F062804FF45F
:1033B0007F0C0CEAD11310F0004F18BF43F0050347
:1033C0001CEAD01218BF13EA0C0F00F057804FF020
:1033D000004C4CEA00204CEA0121A3F580339A42CC
:1033E00010DD23F00203B0F1004F06D343F00203D7
:1033F000401ABCBF404283F001034FEA4000A2F5EF
:103400008032ECE74FEA224CBCEB234F08DB8842CA
:1034100006D31CD0A0EB4100C0F1000083F00103F3
:1034200040001DD217D40DD0B0FA80FC0CF1010C75
:1034300000FA0CF0A2EB0C42D2F1000C12DB4FEAC6
:10344000C37070474FEA437000F00040704713F0BC
:10345000020FE5D0DEE74FEA4000B2F58032EBDD47
:10346000002AE9DD4FEAC21242EA502040EAC37066
:10347000704710B5FFF74BFFEDFFFF3E1CEAD11F71
:1034800002D000F000407047004870470000C07F45
:10349000FF2141EAD050C005704700005FEA400CB0
:1034A0005FEA1C6CBCF17F0314D4D3F1170240F324
:1034B0001C804FF0010C0CFA02FCACF1010303403C
:1034C00020EA0300B3EB5C0208BF10EA0C0F88BFD0
:1034D00060447047B3F1FF3F28BF5FEA002C00F063
:1034E000004088BF40F07E507047BCF1FF0FB8BF6E
:1034F000704710B5FFF70BFF40DBB6BE80F0004011
:1035000090EA010F7FF525AC81F0004100F007B88B
:1035100090EA010F48BF81F000413FF51AAC421A12
:1035200004D882F00042A0EB020011444FEAD052CE
:10353000A2EBD1534FF07F4C1CEA410F18BF9CEA1D
:10354000026F4AD04FF0004C4CEA00204CEA0121B7
:1035500021FA03FCB0EB0C0C0FD412F0FE0F36D0A6
:103560005FEA4C001DD5001240EBC25038BF7047D7
:103570001CF03F0F18BF70470BE05FEA1C20A2F160
:10358000010240EBC25038BF70471CF07F0F18BFDC
:103590007047C3F12003994014BF401E20F0010082
:1035A00070474FEA1223800808BF7047B0FA80FCCA
:1035B000A2EB0C02CCF1280C60FA0CF093EA122F6B
:1035C00004BF00EBC25070474FEAC3707047130A44
:1035D0005FEADC1008BF7047F6E79CEA026F04D090
:1035E00010EA5C0F08BF0020704710B5FFF78FFE90
:1035F00040DFF63E81F0004070470CF00F03092BCE
:1036000008BF082000F051800A2B0BD0082B18BFF0
:10361000704708BF1CF0400F0AD04FF000004FF079
:10362000000170471CF0400F18BF4FF0004070477A
:103630001CF0100F08D000F07F4220F0704342EAE7
:10364000D3014FEA4370704700F0604021F07F42A1
:1036500042EA000201F07F4040EA727070474FF08A
:10366000FF0212EAD0521CBF92F0FF038B42C2BF8E
:10367000D14200EBC1507047002A0AD0002B0BD07A
:1036800000F000400029A4BF40F0FE4040F40000DC
:10369000704700F00040704743024FF00B0C18BF1A
:1036A0004CF0806C7FF4B0AB70471CF4801F11D0DD
:1036B0001CF4E02F03D06FEACC31490070474FF083
:1036C0004050EFF3008222F0704242EA000282F39F
:1036D000008870474FF000007047000000000000B5
:1036E0006E83F9A22915444ED15727FCC0DD34F56D
:1036F000999562DB4190433CAB6351FE00000000B2
:103700000000000001020304060708090000000091
:1037100001020304010202030405060708090A0B5B
:103720000C0D0E0F1010000048370008000000209C
:103730001000000050010008583700081000002059
:103740007007000070010008010000001000000078
:0837500000127A00C353FB4193
:04000005080000ED02
:00000001FF
