:020000040800F2
:1000000010070020B5010008E5150008DD150008FF
:10001000E11500088D020008F91500080000000035
:10002000000000000000000000000000ED150008C6
:100030009102000800000000E9150008F115000811
:10004000CF010008CF010008CF010008CF01000850
:10005000CF010008CF010008CF010008CF01000840
:10006000CF010008CF010008CF010008CF01000830
:10007000CF010008CF010008CF010008CF01000820
:10008000CF010008CF010008CF010008CF01000810
:10009000CF010008CF010008CF010008CF01000800
:1000A000CF010008CF010008CF010008CF010008F0
:1000B000CF010008CF010008CF010008CF010008E0
:1000C000CF010008CF010008CF010008CF010008D0
:1000D000CF010008CF010008CF010008CF010008C0
:1000E000CF010008CF010008CF01000800F002F89E
:1000F00000F050F814A696E8000CB244B344DA4578
:1001000001D100F047F8BAE80F000FA696E83000DA
:10011000A5EB040504EB0607AAEB0704A7F101070A
:100120004FEA15154FEA3414A4F10104AC4201D38F
:1001300000F030F813F0010F18BFFB1A43F0010371
:1001400000F001F8DBE7184768240000882400006D
:10015000103A24BF78C878C1FAD8520724BF30C8F3
:1001600030C144BF04680C60704700007047000055
:100170000023002400250026103A28BF78C1FBD8B0
:10018000520728BF30C148BF0B6070471FB51FBD65
:1001900010B510BD00F044F81146FFF7F7FF01F06D
:1001A0002DFA00F062F803B4FFF7F2FF03BC00F091
:1001B00065F800000948804709480047FEE7FEE768
:1001C000FEE7FEE7FEE7FEE7FEE7FEE7FEE7FEE707
:1001D00004480549054A064B70470000F51500081C
:1001E000ED0000081001002010070020100300207F
:1001F0001003002070477047704710B500F008F8F2
:10020000006810BD10B5044600F002F8046010BD8F
:100210000048704710000020004870471000002080
:100220007546FFF7F9FFAE4605006946534620F0D4
:100230000700854618B020B5FFF7CAFFBDE820408B
:100240004FF000064FF000074FF000084FF0000B92
:10025000AC46ACE8C009ACE8C009ACE8C009ACE801
:10026000C00921F007018D46704710B50446AFF371
:1002700000802046BDE81040FFF795BF01491820D7
:10028000ABBEFEE72600020070470000FEE700005C
:1002900070470000B0B5044600F01EF9054640F274
:1002A0000000C2F200000078611C18BF044400BFC7
:1002B00000F012F9401BA042FAD3B0BD2DE9F04F77
:1002C00082B00E68002E00F0FD8041F20042C4F2C0
:1002D0000102042340F2004E904208BF03234FF670
:1002E000FF7CC4F2010E009300240123C1F2100C24
:1002F0004FF0000A4FF000094BE000BF41F200024E
:10030000C4F20102009F904208BF022704F00C03D0
:100310000F229A402BEA020207FA03F34FEA9A05EA
:100320001A4346F825204E6840F20C45F202DEF8EA
:10033000082054BF22EA080242EA0802C4F201057A
:10034000CEF808202A68B30254BF22EA080242EA23
:1003500008022A60B303DEF8042054BF22EA080230
:1003600042EA0802F303CEF80420DEF800204FF042
:10037000010354BF22EA080242EA0802CEF8002034
:100380000E680AF1010A36FA0AF204F1040400F0D8
:10039000998003FA0AFB16EA0B08F1D04E6866450D
:1003A00012DC122E56D8DFE806F0350B4D495555B4
:1003B000555555555555555555555545510000BF41
:1003C000D1F80C9046E000BF4FF6FF72C1F2210257
:1003D00096420FDC0022C1F2110296421AD000228E
:1003E000C1F21202964215D00022C1F221029642B9
:1003F00010D02FE00022C1F2220296420AD0002241
:10040000C1F23102964205D00022C1F23202964278
:1004100020D100BF8A684AB1012A14BFC0F814B0C5
:10042000C0F810B04FF0080914E000BF4FF0040905
:1004300010E000BFCA6802F104090BE04FF00009A8
:1004400008E000BFCA6802F1080903E0CA6802F1C7
:100450000C0900BF02462646B8F5807F24BF04324F
:10046000203E17680F25B54027EA050509FA06F66C
:1004700035431560CA79D2067FF582AF41F2180381
:10048000C4F202031A68AEF57E7642F001021A60E9
:100490001A6802F001020192019A2AF0030256F84A
:1004A00002B040F60002C4F20102904208D040F6C9
:1004B0000042C4F2010290427FF420AF012725E7F9
:1004C000002723E702B0BDE8F08F0000002A08BF34
:1004D000090401617047000040F20C10C2F20000F4
:1004E00000687047002804BF01207047F0B581B054
:1004F000044690F83D0028B9002084F83C002046CE
:1005000000F0A2F8242084F83D002068016821F062
:1005100001010160016841F400410160016821F4BA
:100520000041016000F048FA636848F2A16CC0F233
:10053000010C40F60011C0F23D0163453CBF48F29A
:100540008041C0F21E01884202D2012001B0F0BDFC
:100550004DF68361C4F21B31A0FB01122168970C98
:10056000D1F804E04FF496762EF03F0545EA924527
:100570004D60774348F638160D6AC0F24106A7FB76
:10058000067625F03F07634538BF960C721C3A4348
:100590000A62CA6948F2A0664CF6FF77C0F201060B
:1005A000B34222EA07020BD801385B00B0FBF3F03C
:1005B00001306FF31F30042898BF04201BE000BFF8
:1005C000A768013857B119277B43B0FBF3F001301E
:1005D0006FF31F3070B100F5804007E003EB430379
:1005E000B0FBF3F001306FF31F3018B100F500409D
:1005F00001E000BF01201043C8610868D4E9072367
:1006000020F0C000104318430860886848F2FF32A9
:1006100004F10C0790438CCF18431043A6698860FF
:10062000C86820F0FF0038433043C860086840F0D5
:100630000100086000202021206484F83D10206320
:1006400084F83E0001B0F0BD10B586B0016845F2F7
:100650000040C4F2000081424FF00001CDE90411D6
:10066000CDE9021102D006B010BD00BF41F218045E
:10067000C4F20204216800F5384041F0080121600D
:10068000216801F0080101910199C0210291122114
:1006900003910321059102A9FFF710FE606840F461
:1006A00000106060606800F400100190019806B0CE
:1006B00010BD000040F2000040F20C11C2F2000038
:1006C000C2F2000100780A68104408607047000018
:1006D00080B542F20000C4F20200016841F010014E
:1006E0000160032000F07AF80F2000F005F800F018
:1006F00027F8002080BD000070B540F20006C2F26D
:10070000000640F208013278C2F200014FF47A7319
:100710000968B3FBF2F20446B1FBF2F1084600F0BF
:100720005FFB0F2C4FF0010508D838B94FF0FF30B0
:1007300021460022002500F025F87460284670BD8F
:1007400082B041F21800C4F202000168022241F0B6
:1007500001010160016801F0010101910199416805
:1007600041F080514160406800F080500090009856
:100770000420C4F20100016862F31A61016002B052
:100780007047000010B54EF60C5CCEF2000CDCF8A1
:100790000030C3F3022E8EF00704042C28BF04247B
:1007A000BEF103034FF0FF3E0EFA04F438BF0023FE
:1007B000A14399400EFA03F39A43114300F00F024C
:1007C00000F160430901043A03F5644362440028E0
:1007D00048BF02F10C03197010BD00004EF60C5119
:1007E000CEF200010A684FF6FF031A4060F30A22B6
:1007F00042F0806040F0FD7008607047002804BF40
:10080000012070472DE9F04381B042F20008C4F2A4
:1008100002080446D8F800000D4600F007008142A7
:100820000CD9D8F8000020F007002843C8F80000D1
:10083000D8F8000000F00700A8426CD1206841F20F
:1008400004098107C4F2020917D5410705D5D9F873
:10085000001041F4E061C9F80010010705D5D9F88E
:10086000001041F46051C9F80010D9F80010A268D6
:1008700021F0F0011143C9F80010C00742D1D8F8A7
:10088000000000F0070085420CD2D8F8000020F0EC
:1008900007002843C8F80000D8F8000000F007005F
:1008A000A84238D12068410707D5D9F80010E2687E
:1008B00021F4E0611143C9F80010000708D5D9F808
:1008C0000000216920F4605040EAC100C9F800002E
:1008D000D9F8002002F00C00082841F20020C0F2F4
:1008E0007A004DD142F29E53C2F38341C0F6000319
:1008F000595CD20338D440F60010C0F23D004843A2
:100900003EE000BF606859F8041C022808D00128A6
:1009100026D1890306D4012001B0BDE8F08300BFD1
:100920008901F8D5D9F8001021F003010843C9F86E
:100930000000FFF7D1FD064641F28837D9F80000E4
:10094000616800F00C00B0EB810F98D0FFF7C4FD98
:10095000801BB842F2D9032001B0BDE8F08300BF8C
:100960008907D8D5DEE700BFD9F8002042F29C53B2
:10097000C2F34042C0F600039A5C4843B0FBF2F079
:10098000D9F8001042F28452C1F30311C0F60002FC
:10099000515C40F2080220FA01F140F20400C2F278
:1009A00000000068C2F200021160FFF7A5FE0020FF
:1009B00001B0BDE8F083000040F2080041F20401FC
:1009C000C2F20000C4F202010068096842F29452C7
:1009D000C1F30221C0F60002515CC840704700001C
:1009E000002804BF012070472DE9F04182B0044681
:1009F000007841F20006C007C4F202060CD070680D
:100A000000F00C00042840F081803068800303D59A
:100A10006068002800F04681207880071BD5706848
:100A200010F00C0F09D0706800F00C00082840F09E
:100A300087807068C00300F183803068800703D529
:100A40002069012840F02E813068616920F0F800AB
:100A500040EAC10030602078000713D420784007B6
:100A60002CD4E569002D00F01881706800F00C00AE
:100A7000082840F0A780012D40F00481012002B039
:100A8000BDE8F081A069002800F084800020C4F255
:100A900042200121C0F88014FFF71EFD054600BF6B
:100AA000706A800700F1B280FFF716FD401B022834
:100AB000F6D9032002B0BDE8F08100BFF0695FEA1B
:100AC000C00808D4F06940F08050F061F06900F08F
:100AD00080500090009847F20007C4F20007386881
:100AE000C00549D4386840F480703860FFF7F4FCE2
:100AF000054600BF3868C0053ED4FFF7EDFC401B3B
:100B00006428F7D9032002B0BDE8F081706800F0D6
:100B10000C00082803D17068C0033FF576AF616808
:100B20003068002900F00C81B1F5A02F00F00081A1
:100B3000B1F5803F40F01A8140F480301CE100BFE5
:100B40002069002840F20000C4F2422000F08880B2
:100B500001210160FFF7C0FC054600BF3068800737
:100B60003FF572AFFFF7B8FC401B0228F6D903200F
:100B700002B0BDE8F08100BFE168306A002900F0F2
:100B80009D80052900F09280012940F0AF8040F05F
:100B90000100B1E00020C4F242200021C0F880141E
:100BA000FFF79AFC054600BF706A80077FF556AFD5
:100BB000FFF792FC401B0228F6D9032002B0BDE8E3
:100BC000F08100BF0027C4F2422700203866FFF7FB
:100BD00083FC022D05460DD13068800140F1DE8096
:100BE000FFF77AFC401B02284FF00300F4D902B053
:100BF000BDE8F081306880014FD5FFF76DFC401BE8
:100C000002284FF00300F5D9F1E700BF40F20800D9
:100C1000C2F20000006844F6D351C1F26201A0FBA9
:100C20000101480A019000BF00BF0198411E002841
:100C300001913FF413AF00BF0198411E00280191BC
:100C40003FF40CAF00BF0198411E002801913FF412
:100C500005AF00BF0198411E00280191E4D1FDE6D7
:100C600000210160FFF738FC054600BF30688007AF
:100C70007FF5F1AEFFF730FC401B02284FF0030078
:100C8000F4D9B4E77068216A00F480328A4209D14D
:100C9000616A00F47010884204D1002002B0BDE8FF
:100CA000F08100BF012002B0BDE8F08140F00400F7
:100CB0003062306A40F001001EE000BF20F0010009
:100CC0003062306A20F004003062FFF705FC054610
:100CD00041F28837306A800720D5FFF7FDFB401BC3
:100CE000B8424FF00300F5D981E700BF20F00100C2
:100CF0003062306A20F004003062FFF7EDFB0546F9
:100D000041F28837306A800708D4FFF7E5FB401BC3
:100D1000B842F7D9032002B0BDE8F081B8F1000F66
:100D20003FF59FAEF06920F08050F06199E600BF7A
:100D300040F480203060306840F480301CE000BF18
:100D400020F480303060306820F480203060FFF77D
:100D5000C3FB0546306880037FF55EAEFFF7BCFB42
:100D6000401B64284FF00300F4D940E720F48030A2
:100D70003060306820F480203060FFF7ADFB05461E
:100D8000306880033FF548AEFFF7A6FB401B6428A0
:100D9000F6D9032002B0BDE8F08100BF206AB0F5AB
:100DA000803F05D17168A26821F400311143716060
:100DB0007168626A21F47411114308437060012064
:100DC0003866FFF789FB0446306880013FF565AF60
:100DD000FFF782FB001B02284FF00300F4D906E75F
:100DE000411E0020B0EB116F1CBF012070474EF276
:100DF0001002CEF2000251604EF62351CEF20001F5
:100E0000F0230B70072190601160704790F83C2030
:100E1000012A04BF02207047B0B501F108053CCD9E
:100E2000D1E900CE23F47C5322F470521A432EF4FD
:100E3000F0431A432CF4E0431A4324F4C0431A430A
:100E40002A43C96922F4804203681143596400218E
:100E500080F83C100020B0BD90F83C20012A4FF0F3
:100E6000020236D010B580F83D200268D2F804E0C6
:100E7000D2F808C00C682EF07003234340F2FF74D0
:100E8000C4F20004A24253600ADCB2F1804F13D0D6
:100E900040F20043C4F200039A420DD011E000BFBB
:100EA00042F60043C4F201039A4205D040F6000323
:100EB000C4F200039A4204D149682CF0800319431C
:100EC00091600121002280F83D1080F83C20BDE8AF
:100ED0001040104670470000002804BF01207047F2
:100EE00010B590F83D1031B9002180F83C1004464F
:100EF00000F070F82046022180F83D10016840F2B1
:100F0000FF740B68C4F2000442F6004CA142C4F224
:100F1000010C15DCB1F1804F1AD040F20042C4F24E
:100F20000002914214D0A14218DCB1F1804F1DD0D3
:100F300040F20042C4F20002914217D01AE000BF12
:100F4000614505D040F60002C4F200029142EAD1A8
:100F5000826823F070031343A142E6DD614505D0AA
:100F600040F60002C4F20002914203D1026923F468
:100F700040731343846923F08002D0F804E0C3680F
:100F8000224361450A60CB62C1F828E002D1426980
:100F9000CCF8302001224A610B69DB0703D00B69D2
:100FA00023F001030B6180F8462080F83E2080F892
:100FB0003F2080F8402080F8412080F8422080F8CF
:100FC000432080F8442080F8452080F83D20002010
:100FD00010BD0000006842F60041C4F201018842E1
:100FE00018BF704781B041F21800C4F202000168D6
:100FF00041F400610160006800F400600090009816
:1010000001B0704790F83C20012A4FF002026CD0EA
:1010100080B580F83D20D0F800C04FF67772DCF83C
:10102000083023EA0202CCF808200B684F2B29DC99
:101030001F2B45DD202B46D0302B44D0402B40F0D9
:10104000AF80D1F804E0C968DCF82030DCF820205B
:1010500022F00102CCF82020DCF8182022F0F00267
:1010600042EA011123F00A0242EA0E02CCF81810FB
:10107000CCF82020DCF8081041F0470121F03001C5
:1010800028E000BF6F2B33DDB3F5005F74D0B3F5FC
:10109000805F21D0702B40F08380D1E901E3C968E3
:1010A000DCF8082043EA0E0322F47F4243EA0121E0
:1010B0001143CCF80810DCF8081041F0770109E082
:1010C0000BB1102B6CD1DCF8081021F07001194322
:1010D00041F00701CCF808100022012180F83D10F2
:1010E000002180F83C10BDE880401046704700BFEA
:1010F000502B21D0602B53D1D1F804E0C968DCF823
:101100002030DCF8202022F01002CCF82020DCF87F
:10111000182022F4704242EA013123F0A00242EA90
:101120000E12CCF81810CCF82020DCF8081041F092
:10113000670121F01001CDE7D1F804E0C968DCF8BF
:101140002030DCF8202022F00102CCF82020DCF84E
:10115000182022F0F00242EA011123F00A0242EACA
:101160000E02CCF81810CCF82020DCF8081041F062
:10117000570121F02001ADE7D1E901E3C968DCF8AE
:10118000082043EA0E0322F47F4243EA012111437F
:10119000CCF80810DCF8081041F480419AE700BF51
:1011A00001229AE780B586B0014640F60000C4F2FD
:1011B0000100096800F5105291424FF00001CDE99D
:1011C0000411CDE9021101D006B080BD41F2180131
:1011D000C4F202010A6842F004020A60096801F0E0
:1011E0000401019101994FF4E06102910221039100
:1011F000059102A9FFF762F806B080BD90F83C3077
:10120000012B04BF022070474FEAB202032A00F20A
:10121000F1802DE9F043DFE802F003A53B7500BF44
:10122000036842F600461D6A1A6AC4F2010622F0FB
:1012300001021A621A465C6852F818CFB3428E68EF
:10124000D1F800E025F0020545EA06050CD1CE688C
:10125000D1E9057824F4407425F00C0526F0040645
:101260003C43354344EA08042CF0730747EA0E0771
:101270005C609F614F6809695F631D629F6947F009
:1012800008079F619F6927F004079F61A6E000BFE0
:10129000036842F600461D6A1A6AC4F2010622F487
:1012A00080721A621A46D3F804C052F81CEFB34297
:1012B0008E680C6825F4007545EA06250FD1CE68C6
:1012C000D1E90598360240F2FF4725F44065BE4358
:1012D00035432CF4405748EA090647EA061C2EF02D
:1012E00073072743C3F804C0DF614F680969DF63F0
:1012F0001D62DF6947F00807DF61DF6927F0040737
:10130000DF616BE0036842F60047D3F820C01A6A39
:10131000C4F2010722F480521A621A465C6852F83D
:101320001C5FD1F800E08E68BB4204D14F6924F401
:10133000804444EA87142CF4005747EA063725F422
:10134000E64646EA0E265C60DE614E6809691E6468
:101350001F62DF6947F40067DF61DF6927F4806798
:10136000DF613AE0036842F600461D6A1A6AC4F279
:10137000010622F010021A621A46D3F804C052F88D
:10138000184FB3428E68D1F800E025F0200545EAF9
:1013900006150FD1CE68D1E905986FF0400725F00A
:1013A000C00507EA061635432CF4406748EA0906EB
:1013B00047EA860C24F4E64444EA0E27C3F804C046
:1013C0009F614F6809699F631D629F6947F40067C9
:1013D0009F619F6927F480679F6109021368194321
:1013E00011600021BDE8F043002280F83C2008464F
:1013F000704700BF0121002280F83C20084670475A
:10140000002804BF0120704710B590F83D1031B995
:10141000002180F83C10044600F070F820460221BC
:1014200080F83D10016840F2FF740B68C4F20004BC
:1014300042F6004CA142C4F2010C15DCB1F1804F20
:101440001AD040F20042C4F20002914214D0A142EC
:1014500018DCB1F1804F1DD040F20042C4F200020E
:10146000914217D01AE000BF614505D040F6000256
:10147000C4F200029142EAD1826823F07003134360
:10148000A142E6DD614505D040F60002C4F200024B
:10149000914203D1026923F440731343846923F01A
:1014A0008002D0F804E0C368224361450A60CB6241
:1014B000C1F828E002D14269CCF8302001224A610B
:1014C0000B69DB0703D00B6923F001030B6180F884
:1014D000462080F83E2080F83F2080F8402080F8A9
:1014E000412080F8422080F8432080F8442080F892
:1014F000452080F83D20002010BD0000704700000E
:10150000C1B1042908D0082914BF41224022825CBD
:10151000012A05D016E000BF3F22825C012A11D1CA
:101520000222082910D0042914BF80F8412080F835
:101530003F200BE090F83E20012A03D1022280F8E0
:101540003E2003E00120704780F84020006801F051
:101550001F010122036A8A4023EA02010162036A31
:1015600042F64441C4F201011A43A1F144039842F6
:1015700002620FD040F2FF71C4F20001884213DC16
:10158000B0F1804F1CD040F20041C4F2000188420B
:1015900016D01CE00A6842F400420A6040F2FF7173
:1015A000C4F200018842EBDD42F60041C4F20101C1
:1015B000884205D040F60001C4F20001884206D1FD
:1015C000816801F00701062904BF00207047016807
:1015D00041F001010160002070470000FEE70000BB
:1015E000FEE70000FEE700007047000070470000C3
:1015F000FFF760B870470000FEE7000098B0FFF703
:1016000067F800240120CDE90644CDE904440190A7
:1016100005904FF4E0104FF4803102250A9001A8A4
:10162000CDE90214CDE90851FFF7DAF920B1EFF363
:10163000108072B6FEE700BF0F20CDE90B054FF416
:101640008060CDE90E040BA802210D94FFF7D6F8B7
:1016500020B1EFF3108072B6FEE700BF002441F224
:101660001800CDE90344CDE90144C4F20200016849
:1016700040F6004541F0200101600168C4F2010517
:1016800001F020010B910B990168002241F0080143
:10169000016001684FF4805601F008010B910B992D
:1016A000016841F00401016000684FF4805100F0CE
:1016B00004000B900B982846FEF708FF0120CDE9A7
:1016C00002040220049001A928460196FEF7F6FDC7
:1016D00040F27000A5F53841C2F2000048F2A06265
:1016E0004FF48043C0F2010280E81600C0E90343D2
:1016F000C0E90544C0E90744FEF7F4FE20B1EFF36A
:10170000108072B6FEE700BF40F2C40005F500513C
:10171000C2F2000040F60F621794CDE91544CDE9FE
:101720001244CDE90744CDE90544CDE90344CDE9B0
:101730000144C0E90014C0E90242C0E904448461E4
:10174000FFF7CAFB20B1EFF3108072B6FEE700BFCF
:101750004FF48050149040F2C400C2F2000014A96B
:10176000FFF750FC20B1EFF3108072B6FEE700BF28
:1017700040F2C400C2F20000FFF742FE20B1EFF3D6
:10178000108072B6FEE700BF40F2C400C2F2000053
:1017900012A9FFF761FB28B1EFF3108072B600BF0A
:1017A000FEE700BF60200B900020CDE90C00CDE9E2
:1017B0000E00CDE9100040F2C400C2F200000BA9F7
:1017C0000022FFF71BFD28B1EFF3108072B600BFB7
:1017D000FEE700BF40F2C400C2F200000BA90422E1
:1017E000FFF70CFD20B1EFF3108072B6FEE700BFEB
:1017F00040F2C400C2F200000BA90822FFF7FEFC71
:1018000020B1EFF3108072B6FEE700BF0020059014
:10181000CDE90300CDE901004FF40051089040F2FA
:10182000C4000691C2F2000001A9FFF7EFFA18B157
:10183000EFF3108072B6FEE740F2C404C2F2000477
:101840002046FFF7AFFC28464FF480510122FEF7F7
:101850003DFE204600210025FFF752FE20460421D0
:10186000FFF74EFE20460821FFF74AFED4F800801D
:10187000D8F8440040F40040C8F8440049F69A11F2
:101880002846C3F6996100F01DFA40F6F971C4F2DA
:10189000C901044600F0A1FA40F6F9710746204656
:1018A000CCF2C90100F00EFA0546002F18BF2546FC
:1018B000284600F043F94FF07E5100F003FA00246F
:1018C000C4F21004214600F061FC40F6A6218246D5
:1018D0002846CCF2060100F0F5F900F02FF94FF0A0
:1018E0007E5100F0EFF9214600F050FC40F6A621B1
:1018F00083462846C4F2060100F0E4F900F01EF920
:101900004FF07E5100F0DEF9214600F03FFC00244C
:10191000C4F2401481465046214600F071FA40F26C
:10192000000AC4F2615A514600F030FC00F07AFB24
:1019300007465846214600F063FA514600F026FC5F
:1019400000F070FB06464846214600F059FA514621
:1019500000F01CFC00F066FBB7F5616F4FF46161AD
:1019600028BF0F46B6F5616F28BF0E46B0F5616F10
:1019700028BF0846C8F83470C8F83860C8F83C007A
:101980000120FEF787FC40F2C400C2F20000D0F84C
:10199000008073E74100080218BF04200A0E18BF38
:1019A00040F001004FF07F4232EA010108BF40F0F1
:1019B0000200012808BF05207047012100F093BDF7
:1019C0000021084600F01CBA6FF05E01080700F025
:1019D0008ABD00002DE9F04D0D4614464FF07F41C1
:1019E000B1EB440F9EBF4FF0FF312960BDE8F08D91
:1019F0004FF0004040EA0421C4F3C750783810F09B
:101A00001F024A4B4FEA601CC2F120067B44C4F31C
:101A1000C750A0F178004FEA601003EB800053F844
:101A20002C3008BFD0E901C612D0D0F804C09340D2
:101A30002CFA06F73B4387680CFA02FC27FA06F8F3
:101A4000C06807FA02F2F0404CEA080C42EA0006CD
:101A5000A3FB0132ACFB01C0A6FB016101EB0C064C
:101A60008E4234BF4FF0010C4FF0000CC11861449E
:101A7000BCF1000F02D0814202D903E0814201D2C1
:101A8000012000E00020104400F120024FEA9218EB
:101A90008006CA0C40EA42304F03C5F8008000F0CF
:101AA000E1FA8246384600F0F5FA6FF0120100F0D4
:101AB0001AFD0746304600F0EDFA6FF0250100F000
:101AC00012FD83463946504600F0FCF8594600F0B6
:101AD000F9F800F500666FF30B065146304600F04A
:101AE0005BFC394600F058FC594600F04BFC1049AD
:101AF00000F04CFB07460F49304600F047FB3946E3
:101B000000F0E0F807460C49304600F03FFB39464C
:101B100000F0D8F814F0004F08BFBDE8F08DC8F110
:101B2000805180F000402960BDE8F08D540B00002A
:101B3000DB0FC92F22AAFD290000C92F2DE9F84388
:101B40000446024652486946B0EB420F09D94FF0AD
:101B5000E640B0EB420F94BF00204FF0FF30009002
:101B600030E04C4B22F00040834271D94A49204674
:101B700000F00CFB00F0D6FB804600F037FA00F0D6
:101B8000030000904549404600F000FB05464449EB
:101B9000404600F0FBFA06464249404600F0F6FA9D
:101BA00007464149404600F0F1FA214600F0EAFBC1
:101BB000394600F0F1FB314600F0EEFB294600F01B
:101BC000EBFB04462546009C002C45DB294614F01F
:101BD000010F08461ED000F0D9FA0546334900F03F
:101BE000D5FA334900F06EF8294600F0CFFA3149B2
:101BF00000F068F8294600F0C9FA4FF07E5100F075
:101C000061F814F0020F08BFBDE8F88380F00040CF
:101C1000BDE8F88300F0BAFA0646274900F0B6FAA4
:101C2000264900F04FF8314600F0B0FA244900F0A0
:101C300049F8314600F0AAFA294600F0A7FA2946E9
:101C400000F040F814F0020FE0D1BDE8F883FFE7A0
:101C50001046FFF7BFFEB4E76800B0F17F4F09D22E
:101C60002846FFF797FE042808BFFFF7ADFE284679
:101C7000BDE8F88306D10120FEF7C4FABDE8F843B9
:101C8000FFF79EBE2846BDE8F843FFF796BE00006A
:101C9000B61F927E490E494683F9223F1A61342CC1
:101CA0000020A23300A0FD390000C93FB93AB2BA02
:101CB000CA9F2A3DDDFFFFBE336D4CB9DA82083C76
:101CC000A0AA2ABE90EA010F48BF81F0004100F1AE
:101CD0006A83421A3CBF801A89184FEAD052A2EB9D
:101CE000D1534FF07F4C1CEA410F18BF9CEA026FA2
:101CF00000F03B804FF0004C4CEA00204CEA012100
:101D000021FA03FC10EB0C0C1ED202F1FF325FEA49
:101D10001C2040EBC25038BF70471CF07F0F4FEAC9
:101D2000400C18BFBCF17F4F38BF7047C3F1200390
:101D3000994008BF20F00100BCF17F4F38BF7047C9
:101D4000A0F1C04000F0E9BA4FEA3C00000A40EBC5
:101D5000C25028BF1CF0FF0F4FEA400CE6D018BF5E
:101D6000BCF17F4F38BF7047EAE79CEA026F05D0AD
:101D700010EA5C0F08BF00F00040704710B500F09B
:101D800086FA00BF64FBBE3E014800F07ABB00BF8C
:101D90000000C07F10B500F0F5F80CBF0120002056
:101DA00010BD10B500F0EEF814BF0120002010BDEA
:101DB00010B500F083F98CBF0120002010BD10B5D4
:101DC00000F07CF92CBF0120002010BD10B500F000
:101DD000A9F994BF0120002010BD10B500F0A2F9B0
:101DE00034BF0120002010BD401058BFC0F140405A
:101DF000491058BFC1F140418142EFF30080704764
:101E00004FF47F0C1CEAD0121EBF1CEAD11392EAD9
:101E10000C0F93EA0C0F00F0858090EA010F48BF89
:101E200042F4807240F4000C41F400002CF07F4139
:101E300020F07F4000B5A2EB030281420FF2081CA4
:101E4000ACEB504E9EF800E0C0F100004FEA4E0EA1
:101E500000FB0EFC38BF49004FEA2C1C0CFB0EF3B4
:101E60004FEACE1E0EEB635E4FEA112C0EFB0CFC0C
:101E70004FEAC1214FEA1C5300FB031102F5FA029D
:101E80004FEA112C0EFB0CFC4FEA01314FEADC4CFF
:101E900000FB0C1142EB2242C14228BF09184CEB57
:101EA00003335DF804EB10EB410143EBC250B2F594
:101EB0007C0F38BF704729D512F0F00F1CBF00F11E
:101EC000C04000F00040704700818283848586878F
:101ED00088898B8C8D8E8F919293959697999A9CE9
:101EE0009D9FA0A2A3A5A7A8AAACAEB0B2B3B5B758
:101EF000B9BCBEC0C2C5C7C9CCCED1D4D7D9DCDF2E
:101F0000E2E6E9ECF0F3F7FAFE0000004FEA400CDD
:101F10000CF1807CBCF17E4F28BF7047B0F1C0400F
:101F200000F0FBB90CEAD11390EA010F48BF42F46C
:101F30008072624538BF634507D213F47F0F16D015
:101F400080EA010000F00040704710B500F09FF9F2
:101F5000097EFC3E00F005B880EA010000F0004078
:101F6000704780EA010000F0004000F0D6B912F49A
:101F70007F0F04BF0248704780EA010000F0CDB92E
:101F80000000C07F50EA010C00F113801CF5000F27
:101F900058BFBCF5000F01D48842704707D710F531
:101FA000000F58BF11F5000F15D4884270478942C1
:101FB00070471CF5000F04D5BCF5000FF7D5814222
:101FC00070474FF0807C1CEB400F38BF1CEB410F7B
:101FD00001D28142704710B500F059F992244900AE
:101FE0004FF000504FF08051FFF7FEBE41000B0E46
:101FF000D3F19E0208D950F400034FEA032323FAD9
:1020000002F048BF4042704710B500F040F900BFF1
:1020100049922480002070476FF0004282EA20003D
:1020200070470000C10DD1F19E0206DB4FEA00238C
:1020300043F0004323FA02F07047004207D54FEA0D
:102040004001B1F1FE4F02D24FF00000704710B5D1
:1020500000F01DF949922480002070476FEA2000AB
:102060007047000010F0004148BF4042B0FA80F3D2
:1020700010FA03F2C3F19D030BD051EAC35101EBF7
:102080001220530638BF704700F1010008BF20F04E
:1020900001007047B0FA80F310FA03F2C3F19D0318
:1020A0000AD0D90501EB1220530638BF704700F162
:1020B000010008BF20F001007047000050EA010C49
:1020C00000F113801CF5000F58BFBCF5000F01D4C0
:1020D0008842704707D710F5000F58BF11F5000F61
:1020E00015D488427047894270471CF5000F04D50B
:1020F000BCF5000FF7D5814270474FF0807C1CEB98
:10210000400F38BF1CEB410F01D28142704710B520
:1021100000F0BDF8922449004FF080504FF000517C
:10212000FFF762BE50EA010C00F113801CF5000FAE
:1021300058BFBCF5000F01D48842704707D710F58F
:10214000000F58BF11F5000F15D48842704789421F
:1021500070471CF5000F04D5BCF5000FF7D5814280
:1021600070474FF0807C1CEB400F38BF1CEB410FD9
:1021700001D28142704710B500F089F892244900DD
:102180004FF000504FF08051FFF72EBE4FF47F0C00
:102190001CEAD0121EBF1CEAD11392EA0C0F93EA7C
:1021A0000C0F00F0478090EA010F48BF42F48072A4
:1021B0004FF0004C4CEA00204CEA012102EB0302F4
:1021C000A0FB0113A2F50002002918BF43F0010390
:1021D0005B0028BF4FEA330342EB22425FEA132C35
:1021E0004CEBC2502EBFBCEB436FB2F57C0F704777
:1021F0004FEA036CBCF1004F08BF20F00100B2F5BC
:102200007C0F38BF70470BD582F0FF0212F5803F7C
:10221000C8BF704700F1C040D8BF00F00040704711
:1022200000F5000C5FEA4C0C48BF7047B0F1C040AD
:1022300000F073B80CEAD11390EA010F48BF42F4E2
:102240008072624538BF634504D280EA010000F025
:102250000040704710B500F01AF800BF8900013E39
:1022600000F007B800F009B85FEA410C5FEA1C6CA7
:1022700008D080EA010000F050B85FEA400C5FEA45
:102280001C6CF6D14FF00040A0F5800070470EF1B5
:10229000020E2EF0030E5EF8044B244204D44FEAE3
:1022A0004102B2F17F4F11D84FEA4003B3F17F4FA3
:1022B0000CD80ED14FEAD07C0CEB4C0C0CF1020C7C
:1022C000B2F17F4F08BF4CEBD17C04E04FF0080C1B
:1022D00001E04FEAD17C0CEB4C0324FA03F404F048
:1022E0000704B4F1040C06D20EEB840CBDE81040D8
:1022F0004CF0010C6047DFE80CF0070802024FF0D9
:102300000040A0F5800010BD0846420018BFD2F181
:10231000807288BF00F0004010BDFF2141EAD0501C
:10232000C00570475FEA400C5FEA1C6CBCF17F039C
:1023300014D4D3F1170240F31C804FF0010C0CFAB7
:1023400002FCACF10103034020EA0300B3EB5C02A2
:1023500008BF10EA0C0F88BF60447047B3F1FF3F1D
:1023600028BF5FEA002C00F0004088BF40F07E509C
:102370007047BCF1FF0FB8BF704710B5FFF787FF7C
:1023800040DBB6BE80F0004090EA010F7FF5A1ACC3
:1023900081F0004100F007B890EA010F48BF81F0DA
:1023A00000413FF596AC421A04D882F00042A0EBFF
:1023B000020011444FEAD052A2EBD1534FF07F4CB0
:1023C0001CEA410F18BF9CEA026F4AD04FF0004C44
:1023D0004CEA00204CEA012121FA03FCB0EB0C0C82
:1023E0000FD412F0FE0F36D05FEA4C001DD500125C
:1023F00040EBC25038BF70471CF03F0F18BF70470A
:102400000BE05FEA1C20A2F1010240EBC25038BF92
:1024100070471CF07F0F18BF7047C3F1200399402D
:1024200014BF401E20F0010070474FEA12238008BD
:1024300008BF7047B0FA80FCA2EB0C02CCF1280C6C
:1024400060FA0CF093EA122F04BF00EBC250704701
:102450004FEAC3707047130A5FEADC1008BF704789
:10246000F6E79CEA026F04D010EA5C0F08BF002078
:10247000704710B5FFF70BFF40DFF63E81F00040DC
:1024800070470CF00F03092B08BF082000F05180A3
:102490000A2B0BD0082B18BF704708BF1CF0400F49
:1024A0000AD04FF000004FF0000170471CF0400FC1
:1024B00018BF4FF0004070471CF0100F08D000F01C
:1024C0007F4220F0704342EAD3014FEA43707047E5
:1024D00000F0604021F07F4242EA000201F07F40BC
:1024E00040EA727070474FF0FF0212EAD0521CBFF0
:1024F00092F0FF038B42C2BFD14200EBC150704744
:10250000002A0AD0002B0BD000F000400029A4BF05
:1025100040F0FE4040F40000704700F0004070477B
:1025200043024FF00B0C18BF4CF0806C7FF42CACC6
:1025300070471CF4801F11D01CF4E02F03D06FEA09
:10254000CC31490070474FF04050EFF3008222F049
:10255000704242EA000282F3008870474FF00000A8
:1025600070470000000000006E83F9A22915444E58
:10257000D15727FCC0DD34F5999562DB4190433C8F
:10258000AB6351FE000000000000000001020304E4
:10259000060708090000000001020304010202030B
:1025A0000405060708090A0B0C0D0E0F1010000099
:1025B000D025000800000020100000005001000895
:1025C000E02500081000002000070000700100084E
:1025D000010000001000000000127A00000000005E
:04000005080000ED02
:00000001FF
